:1000000058290010250200002F0200000D0B0000EF
:10001000330200003502000037020000A8C0FFEFE5
:100020000000000000000000000000003902000095
:100030003B020000000000003D0200003F02000003
:100040004102000043020000450200006D0700006D
:10005000490200009D600000B5A500004F020000AD
:100060005102000053020000F9CE000057020000C8
:10007000590200005B0200005D0200005F02000008
:1000800061020000630200006502000067020000D8
:10009000690200006B0200006D0200006F020000A8
:1000A0007102000073020000750200007702000078
:1000B000790200007B0200007D0200007F02000048
:0C00C000810200008302000085020000A5
:1000CC00354936480A1A02D0072291438D463449E5
:1000DC0034480A1A06D00722914381F30988022278
:1000EC0082F3148830483149314A00F043F83148E2
:1000FC003149324A00F03EF831483249324A00F078
:10010C0039F832483249334A00F034F8324833492E
:10011C00334A00F02FF833483349344A00F02AF8B8
:10012C0033483449344A00F025F834483449002225
:10013C0000F02BF833483449002200F026F83348FD
:10014C003349091A082903DB0022026004300160DC
:10015C001F482049884205D00268043003B49047F8
:10016C0003BCF7E700208646EC4600200021294A14
:10017C009047FEE7884207D0521A05D00378013029
:10018C000B700131013AF9D17047884202D00270EC
:10019C000130FAE770470000582900105821001070
:1001AC005829001058290010BC2401000000001030
:1001BC00EC030010900200009002000038F70000E1
:1001CC00BC240100000000100000001038F70000F3
:1001DC0038F7000038F7000038F7000038F7000057
:1001EC0038F7000038F7000038F70000BC24010095
:1001FC00A82801005811001058110010EC03001031
:10020C005511001058110010581100105811001001
:10021C0058210010C1080000184819490160FFF767
:10022C004FBFFEE7FEE7FEE7FEE7FEE7FEE7FEE771
:10023C00FEE7FEE7FEE7FEE7FEE7FEE7FEE7FEE78A
:10024C00FEE7FEE7FEE7FEE7FEE7FEE7FEE7FEE77A
:10025C00FEE7FEE7FEE7FEE7FEE7FEE7FEE7FEE76A
:10026C00FEE7FEE7FEE7FEE7FEE7FEE7FEE7FEE75A
:10027C00FEE7FEE7FEE7FEE7FEE7000008ED00E024
:04028C00000000006E
:100290006A4B1A6822F4704242F480521A60D3F812
:1002A000C02042F01002C3F8C0204FF40042C3F84F
:1002B000C420D3F8802022F00202C3F88020AA22B2
:1002C000C3F88C205522C3F88C201A46D2F8883007
:1002D00013F0007FFAD1594BD3F8802022F00102AD
:1002E000C3F88020AA22C3F88C205522C3F88C20A2
:1002F0001A46D2F8883013F0807FFAD14F4BD3F8EA
:10030000A02022F00202C3F8A020AA22C3F8AC2049
:100310005522C3F8AC201A46D2F8A83013F0007F5B
:10032000FAD1464BD3F8A02022F00102C3F8A02056
:10033000AA22C3F8AC205522C3F8AC201A46D2F842
:10034000A83013F0807FFAD130223C4BC3F8A021B3
:100350001A46D2F8A03113F0400FFAD0374B0121E2
:10036000C3F80C111A6822F4704242F400521A6069
:10037000C3F80C11324AC3F88420AA20C3F88C00B9
:100380005522C3F88C20C3F88010C3F88C00C3F842
:100390008C201A46D2F8883013F0806FFAD0274BA1
:1003A0000322C3F88020AA22C3F88C205522C3F868
:1003B0008C201A46D2F8883013F0407FFAD01F4ABA
:1003C0000323C2F80431D2F8C43023F0816323F050
:1003D0008003C2F8C4301B4B00221A604FF48071B6
:1003E00099611949196020331A609A616FF0A07100
:1003F000196020331A609A611449196020331A6019
:100400009A614FF0FF31196020331A6099611960C9
:100410000F4B4FF0AA3119640E48186459644FF419
:100420000020586499649A64D964DA6419650A48AA
:100430001865D965DA6559665A66704700C00F407D
:100440000F00070000C00920F7FFFFFD7DE8FFFF58
:1004500000C00240800A0B0000EA2F03024A9369A1
:1004600043F480739361704700C00920034B4FF43D
:100470008032DA614FF48072DA61704700C009207F
:100480004FF40072014B9A61704700BF00C0092011
:10049000024AD36943F40073D361704700C0092056
:1004A00008B509F097FD03F045FD4822044B9A6119
:1004B0005A6930BF12F4607FFAD1FFF7D7FFFEE729
:1004C00040C00920704700BF704700BF704700BFA1
:1004D000704700BF08B5184B93F90030032B15D0B7
:1004E000042B25D00AF05EF828B10422134B1A71B0
:1004F000134804F063FA03220F4B1A70114B1B6868
:1005000003F5DA531833104A136008BD0F4803F09F
:10051000FFFD00220E4B1A7004F092FB0422064BE2
:100520001A700122054B1A700A4804F047FA08BDF8
:10053000FFF7B6FF08BD00BF10080010D408001078
:1005400099C1000060050010EC0300106814010060
:100550006C030010D53F0000704700BF704700BF1C
:10056000704700BF704700BF704700BF704700BFB3
:10057000704700BF704700BF704700BF704700BFA3
:10058000704700BF704700BF704700BF704700BF93
:10059000704700BF08B503F0EFFD08BD08B53C4B40
:1005A0001B78E3B13B4B1B683B4A12689A4208D365
:1005B00003F57A73374A13601122384BDA63C82384
:1005C0000AE0374B1B68012B06D12122334BDA633B
:1005D0000022334B1A6002E0013B314A1360314B79
:1005E0001B680133B3F57A7F02DA2E4A136002E00A
:1005F00000222C4B1A602C4BDA882A4B1B689A423B
:10060000294BB4BF9A885A88244B9A6103F0B4FBF3
:10061000264B1B680133264A934202D8234A1360B3
:1006200002E00022214B1A60204B1B681A4A13601B
:10063000204A1268B2F1FF3F10D0D11A1E48016063
:10064000002905DA9B1A036000221C4B1A7005E092
:10065000FF221A4B1A7009B9194B1A70194A1368FC
:1006600001331360184B1B780133DBB2092B02D81E
:10067000154A137002E00022134B1A70124B1A78BD
:10068000124B53F82230124A1360984708BD00BF3E
:10069000FC03001014050010540400100000094071
:1006A000F4030010F0030010400400105405001083
:1006B000FF830C242005001094040010580500103E
:1006C000D504001060050010FD03001058F700006D
:1006D000F8030010024B02225A6001225A60704750
:1006E0000000094010B4194A194B59885180998863
:1006F0009180DB88D380174BD3F8AC1141F4805143
:10070000C3F8AC11D3F8C41041F48001C3F8C4108D
:1007100011490B6843F440530B60104B0021D96022
:1007200052889A6103225A612120D8630C48102410
:1007300080F80343082404605A604FF47A72094B2E
:100740001A60094B19705DF8044B704740040010A3
:10075000C0F7000000C00F4000C002400000094088
:1007600000E100E014050010FD03001008B50122AF
:10077000024B1A60FFF712FF08BD00BF00000940DE
:1007800008B5074B186800F0EFFA064A10601046EB
:100790004FF47A7100F0C8FAFF22034B1A7008BDBB
:1007A0005404001014050010FC0300100022014B3B
:1007B0001A707047FC030010084B1B7913F00302FA
:1007C00009D01346013B13F0FF03FBD1531EDBB2EC
:1007D000013300EB83000068704700BFDC040010A9
:1007E00030B4104B1C794CB12346013B13F0FF038E
:1007F000FBD1013CE4B2013400EB840003681D68C6
:100800002B784BB1084600F8013B431ADCB215F8CF
:10081000013F002BF7D101E00846002402B114701B
:1008200030BC7047DC04001008B50022FFF7D8FF89
:1008300008BD00BF0C4B1A794AB11346013B13F0B7
:10084000FF03FBD1013AD2B2013200EB8200036810
:100850001A6813782BB101F8013B12F8013F002B05
:10086000F9D10846704700BFDC040010037833B1AB
:10087000024601F8013B12F8013F002BF9D108466E
:10088000704700BF704700BF10B505F065FA034C14
:10089000207804F057FD207010BD00BF3D0000100F
:1008A00008B5064B1B783BB1002009F0FFFA18B1E0
:1008B00004F08CFF09F0D0F808BD00BF64050010FB
:1008C000F0B583B0FFF7E4FC764B5B6903F480037B
:1008D000754A136003F098FC72B6FFF703FFFFF749
:1008E000F9FE01F08DFD03F011FB62B6FFF7B6FDD6
:1008F0006E4B1A686E4B9A4220D06E4B1B6803F504
:100900007A7300936C4B7822DA6108229A61194657
:10091000684A4B6903F4607301931068009B984226
:10092000F7D9019B13B9FFF7A1FD0FE00023019355
:10093000624803F0EDFBFFF791FD07E000225B4BFF
:100940001A605E4803F0E4FBFFF788FD5A4C7823F9
:10095000E3611023A36103F089FA05F03FFA07F081
:1009600051FD0C2005F0ECFB0CF0E6FB0CF028F937
:10097000534804F023F8636903F46073019300247F
:10098000504B1C70504804F019F8FFF779FD4F4B9D
:100990001C701C464E4E4F4D2378013303F0070365
:1009A000237056F823302B6098474B4B1B780BB1C4
:1009B00003F0ACFA03F0F8FF414B834206D109F093
:1009C00009FB019B13F4007F02D004E030BFE3E792
:1009D000424B1B685BB3424803F0F0FF09F032FA68
:1009E00009F0ECFAFF233F4A13703F4A13703F4A65
:1009F00013700022354B1A701C463D4E354D23783E
:100A0000013303F00703237056F823302B60984717
:100A1000314B1B780BB103F079FA03F0C5FF284B7B
:100A2000834202D109F0D6FA01E030BFE7E709F0CE
:100A300009FA09F0C3FAFF242A4B1C702A4B1C70D8
:100A40002A4B1C70FFF79CFE2A4B1C700AF008FC16
:100A50000AF028FC09F0F6F90BF06EFC0122264B97
:100A60001A70264803F0AAFF254C164E254D237810
:100A70002BB100273770284603F0A0FF2770134AD8
:100A80001378013303F00F0313701F4A52F8233019
:100A9000104A13609847104B1B780BB103F036FADD
:100AA00030BFE4E720C0092018050010F0700010E6
:100AB00055AA55AA6005001040C009205414010031
:100AC000150B0000D4080010D53F00006C05001085
:100AD000B8FA0000700500103D0000106805001015
:100AE000659500006C030010640500106D03001094
:100AF00098FA000050040010280B0010EDB400001C
:100B0000090B0010DDC8000058FA000008B5FFF717
:100B100089FB08BD08B5204B93F90030022B39D072
:100B2000032B1CD001F06CFC1C4800210A4601F08C
:100B3000FDF81B4802210A2201F0F8F819480321A8
:100B40000A2201F0F3F818480621002201F0EEF81D
:100B50000322114B1A70FF22144B1A7008BD144B5C
:100B60001B68BBB1052B0CD0082B0ED1114803F02C
:100B7000E7FA00220E4B1A6009F064F9FFF752FB06
:100B800005E00C4803F0C4FA01E009F029FA00225C
:100B9000074B1A6008BD00BF10080010D8FA00000B
:100BA000E4FA00000CFB000034FB00003D000010E4
:100BB000340C0010D813010000680B680344064988
:100BC0008B4202D813600020704704491944116019
:100BD0004FF0FF30704700BFFF830C24007CF3DB35
:100BE000036809685B1A02D4136000207047034948
:100BF000194411604FF0FF30704700BF005C2605BC
:100C000030B4036800221A4800E02346D5B201320E
:100C10001C18FAD50D70002000E01346A3F55B12F6
:100C2000A2F53A52C4B20130002AF6DA4C70002024
:100C300000E01346A3F56A42603AC4B20130002ACC
:100C4000F7DA8C70002200E00346D4B20132B3F52B
:100C50007A70F9D5CC70002200E00346D4B201329C
:100C6000B3F10A00F9D50C714B71881D30BC704787
:100C700000A4D9FA10B50468B4F1FF3F0ED12D23BA
:100C80000B704B708B70CB700B714B718B71CB7188
:100C90000B7201F1090010BD144600E01B4BE21875
:100CA000FAD5002200E01C46A4F55B13A3F53A53E5
:100CB000D0B20132002BF6DA00F0EEF90146002244
:100CC00000E01C46A4F56A43603BD0B20132002B21
:100CD000F7DA00F0E1F90146002300E01446D8B24B
:100CE0000133B4F57A72F9D500F0D6F90146002344
:100CF00000E01446D8B20133B4F10A02F9D500F08D
:100D0000CBF930340470013010BD00BF00A4D9FA13
:100D100003680A689B1A04D0002BB4BF012002208C
:100D200070470020704700BF03681944054B994283
:100D300002D8116000207047034B0B4413604FF042
:100D4000FF307047FF830C24007CF3DB0368591AE3
:100D500002D4116000207047024B0B4413604FF027
:100D6000FF30704700840C2410B400230A4A00E0CE
:100D70000846DCB201338118FAD5084BA3FB0023E7
:100D80009B094FF47A7000FB03F3054800FB043025
:100D90005DF8044B704700BF00A4D9FAD34D621030
:100DA000005C260510B40023134A00E00846DCB2BC
:100DB00001338118FAD5114901FB04F4002200E047
:100DC0001846A0F55B13A3F53A53D1B20132002BBC
:100DD000F6DA0B4B03FB01410023A0F56A406038B3
:100DE000DAB201330028F8DA4EF6602000FB021078
:100DF0005DF8044B704700BF00A4D9FA005C2605DB
:100E000080EE3600F0B50E4F08264FF0000E57F872
:100E1000044D734600E028460133DBB2051BFAD5CA
:100E200096429CBF2F3301F8013B013E16F0FF06AE
:100E3000EDD100F13003084600F8013BF0BD00BFE2
:100E400084FB00002DE9F04F924616460F46002223
:100E5000DFF854C096464FF004094FF001085CF8E3
:100E60002640734601E05B46284603F1010B051B53
:100E7000F9D53AB91BB130333B70424604E087F8EC
:100E8000009001E030333B700137013E16F0FF0661
:100E9000E5D10AF1FF32D2B201328C1800F13003F1
:100EA0008B54601CBDE8F08F60FB0000F0B5046857
:100EB00016460F46DFF834C04FF0000E5CF82600EF
:100EC000734600E02C460133DBB2251AFAD52F33E6
:100ED00007F8013B013E16F0FF06EFD1531EDBB2CF
:100EE0000133C8183034CC540130F0BD60FB000031
:100EF0002DE9F041541C124B53F824308342D8BFE3
:100F000003F1FF3017468E46DFF834804FF0000CB7
:100F100058F82740634600E02846DEB20133051B3F
:100F2000FAD50EF8016B013F17F0FF07F0D1531E01
:100F3000DBB20133CA18C854501CBDE8F08100BFB1
:100F400060FB000010B40278A2F130014378303B1E
:100F5000642404FB03F34FF47A7202FB01328378BA
:100F6000303B03EB830302EB4303C0783038184473
:100F70005DF8044B704700BF30B4002501E0154612
:100F800018466B1CDAB2A0F164035BB2002BF6DAF0
:100F900000230133DBB2C4B2A4F10A0040B200283E
:100FA000F7DA15B12F3201F8012B2F330B703034E3
:100FB0004C70881C30BC704710B4002200E018460A
:100FC000D4B2A0F51C53103B0132002BF7DA0C70A1
:100FD000002300E01046DCB20133B0F57A72F9D597
:100FE0004C70002300E01046DCB20133B0F1640223
:100FF000F9D58C70002300E01046DCB20133B0F16B
:101000000A02F9D50246CC70131ADBB20138FBD5BF
:101010000B71481D5DF8044B704700BF10B480B2DF
:10102000002200E01846D4B2A0F51C53103B013258
:10103000002BF7DA30340C70002300E01046DCB2ED
:101040000133B0F57A72F9D530344C70002300E0EA
:101050001046DCB20133B0F16402F9D530348C7043
:10106000002300E01046DCB20133B0F10A02F9D5EA
:1010700002463034CC70131ADBB20138FBD5303362
:101080000B71481D5DF8044B704700BF08B5008820
:10109000FFF7C4FF08BD00BF632806D920230A4616
:1010A00002F8023B4B701046704710B4002200E07B
:1010B0001846D4B2A0F10A03DBB2013213F0800F5C
:1010C000F6D030340A4602F8024B00F130034B7080
:1010D00010465DF8044B7047632806D904230A467E
:1010E00002F8023B4B701046704710B4002401E038
:1010F00014461846631CDAB2A0F10A03DBB213F0FF
:10110000800FF5D024B14C1C02F12F030B7002E0CC
:101110004C1C04230B70621C00F13003237010463A
:101120005DF8044B704700BF10B4002300E0104688
:10113000DCB2A0F16402013312F4807FF7D03034C6
:101140000C700023DAB20A38013310F0800FF9D0A6
:1011500030324A703A3088700846002300F8033F66
:101160005DF8044B704700BF044B02099A5C0A709B
:1011700000F00F001B5C4B70881C70474CFB00009C
:10118000044B02099A5C0A7000F00F001B5C4B7064
:10119000881C704784FB000070B483B2002401E017
:1011A00013460446601CC0B2A3F51C52103A002A34
:1011B000F6DA012804D14E1C20220A70012403E033
:1011C0004E1C30340C70FF24002201E003460A4616
:1011D000511CC9B2B3F57A70F8D5A14203D1751C80
:1011E0002022327003E0751C30323270FF21002063
:1011F00001E023461046421CD2B2B3F16404F8D594
:101200008A4203D16E1C2021297003E06E1C30300D
:101210002870FF22002401E003460C46611CC9B27D
:10122000B3F10A00F8D51D46914206F1010007BF4F
:101230002022327030343470EA1AD2B2013BFBD52E
:10124000303200F8012B70BC704700BF08B5FFF7C3
:10125000A3FF08BD10B582B00C466946FFF79CFF9E
:10126000002303709DF80030202B05D16B4613F846
:10127000012F202AFBD000E06B461A782AB104F82F
:10128000012B13F8012F002AF9D1204602B010BD1E
:10129000AAB130B415464C1C02780B789A4210D192
:1012A0000346013DEDB2284405E013F8011F14F890
:1012B000012B914207D18342F7D1FF2004E0FF20A8
:1012C0007047002000E0002030BC704703786BB10D
:1012D0000A789A420CD103E011F8012F9A4209D101
:1012E00010F8013F002BF7D1FF207047FF20704717
:1012F000002070470020704710B4431E013AD2B25C
:10130000024413F8014F01F8014B187820B19342C1
:10131000F7D100230B70FF205DF8044B704700BF2E
:10132000037833B1024601F8013B12F8013F002B6C
:10133000F9D10846704700BF2DE9F04F7B4B03EB16
:10134000C00513F830007A4B1B78042B00F2EB80B9
:10135000DFE803F00315692BA6001378013303447B
:1013600013704A1E0844014615F8013F5B0802F855
:10137000013F8A42F8D1811C00234370D3E01378E7
:1013800003EB400313708B1C841C01EB440415F821
:10139000012F520803F8022C03F8012C0233A34258
:1013A000F5D1013001EB4001BDE01378023303EBCE
:1013B0004003137001F1020E00F1020B01EB4B0B25
:1013C0004FF0040A4FF003094FF0000815F8016FC1
:1013D000760854464A4601234746334218BF17430E
:1013E0005B00DBB29200D2B2013CF6D1F4460EF8BB
:1013F000027C0EF8017C54464A464746334218BFE9
:1014000017435B00DBB29200D2B2013CF6D18CF8FC
:10141000EE708CF8EF700EF1020EDE45D6D1013081
:1014200001EB40017FE0137801330344137001F1B5
:10143000EF084F1E01EB000AD1464FF0040C4FF0AD
:10144000030E15F8016F76086446724601234FF0CB
:10145000000B334218BF42EA0B0B5B00DBB2920079
:10146000D2B2013CF5D107F801BF644672464FF095
:10147000000B334218BF42EA0B0B5B00DBB2920059
:10148000D2B2013CF5D108F801BF4F45D9D10130A6
:1014900000238AF801308AF8F1300844BDE8F08F63
:1014A0001378023303EB4003137001F1030E00EBDA
:1014B000400B0BF1060B8B444FF0040A4FF003096D
:1014C0004FF0000815F8016F760854464A4601238C
:1014D0004746334218BF17435B00DBB29200D2B2DB
:1014E000013CF6D1F4460EF8037C0EF8027C0EF8AF
:1014F000017C54464A464746334218BF17435B00B7
:10150000DBB29200D2B2013CF6D18CF8ED708CF8CF
:10151000EE708CF8EF700EF1030EDE45D2D1013083
:1015200000EB40000144481EBDE8F08F00EA0300D4
:10153000970500102DE9F843154602780AB930E006
:101540001046421C4478002CFAD106462AE0034695
:10155000013BDBB2FF2BFBD1C0431418105C28B356
:1015600000274FF001084FF02009B44201D037B1F5
:1015700000E047462A46FFF7DFFE01460CE0302830
:1015800005D148462A46FFF7D7FE014604E02A4621
:10159000FFF7D2FE0146474614F8010F0028E4D1B8
:1015A00004E00246581EC0B2002BD0D10846BDE868
:1015B000F88300BF2DE9F84F0E46CC4901EBC0047B
:1015C00011F83070CA490978042900F28C81DFE8EB
:1015D00011F005001800B0002F0046011378013308
:1015E0003B4413702046721E3744394610F8013FC1
:1015F0005B0802F8013F8A42F8D1BE1C00237B70D1
:1016000071E1137803EB47031370B31C2046B91C38
:1016100006EB410110F8012F520803F8022C03F8E1
:10162000012C02338B42F5D1013706EB47065AE114
:101630001378023303EB4703137004F001F800281A
:1016400039D106F1020E204607F1020B06EB4B0BD7
:101650004FF0040A4FF003094FF0000810F8014F53
:10166000640851464A4601234546234218BF1543A4
:101670005B00DBB29200D2B20139F6D1F4460EF82B
:10168000025C0EF8015C51464A464546234218BFAB
:1016900015435B00DBB29200D2B20139F6D18CF86F
:1016A000EE508CF8EF500EF1020EDE45D6D1013728
:1016B00006EB470617E12046013706EB470C4FF0D3
:1016C000040E03274FF0010800258A4C10F8011F73
:1016D0004908F1463A464346AA460B4218BF42EA39
:1016E0000A0A5B00DBB29200D2B2B9F10109F4D16F
:1016F000A6423CBF86F800A086F801A0F1463A4613
:10170000AA460B4218BF42EA0A0A5B00DBB292000B
:10171000D2B2B9F10109F4D106F1F003A3423CBF02
:1017200086F8F0A086F8F1A002366645CED166466E
:10173000D9E0117801313944C9B2EF2901D81170CB
:101740000BE0002111700233DBB2C3EB03139DF8F1
:10175000286006EB0313684E1E4403F071FFC8BBFC
:10176000204606F1EF08751E06EB070AD1464FF03A
:10177000040C4FF0030E10F8014F640861467246E6
:1017800001234FF0000B234218BF42EA0B0B5B0012
:10179000DBB29200D2B20139F5D105F801BF614642
:1017A00072464FF0000B234218BF42EA0B0B5B005E
:1017B000DBB29200D2B20139F5D108F801BF4D4534
:1017C000D9D1781C00238AF801308AF8F1303044EE
:1017D000BDE8F88F214606F1F00C781C3044B6467F
:1017E0004FF0040A4FF00309DFF8088111F8015F98
:1017F0006D0854464A4601234FF0000B2B4218BF98
:1018000042EA0B0B5B00DBB29200D2B2013CF5D195
:10181000C64538BF8EF800B054464A464FF0000B1C
:101820002B4218BF42EA0B0B5B00DBB29200D2B234
:10183000013CF5D1C44538BF8CF800B00EF1010E63
:101840000CF1010C8645D1D1F137F219294B9842A0
:101850004AD2002302F8F03CF355BDE8F88F137824
:10186000023303EB4703137006F1030E204607EB28
:10187000470B0BF1060BB3444FF0040A4FF003097A
:101880004FF0000810F8014F640851464A46012302
:101890004546234218BF15435B00DBB29200D2B22B
:1018A0000139F6D1F4460EF8035C0EF8025C0EF82E
:1018B000015C51464A464546234218BF15435B002A
:1018C000DBB29200D2B20139F6D18CF8ED508CF82F
:1018D000EE508CF8EF500EF1030EDE45D2D10137F9
:1018E00007EB47073E44701EBDE8F88F00EA03008F
:1018F00097050010F8F1072058EC07202DE9F04F6C
:1019000087B082460F4616460468FF291CBFAC4BC1
:101910001970FF2A18BF8DF81720A94B1D78C5EB49
:1019200005159DF8173003EB0515A64B1D44DFF890
:10193000A492DFF8A4822078252840F0D68104F113
:10194000020B6378253B502B00F2D981DFE813F0BE
:101950006500D701D701D701D701D701D701D7013A
:10196000D701D701D701D701D701D701D701D701B7
:10197000D701D701D701D701D701D701D701D701A7
:10198000D701D701D701D701D7015600D7015B0096
:10199000D701D701D7015100D701D701D701D7010E
:1019A000D7016000D701D701D701D701D701D701EF
:1019B000D701AC01D701A101D701D701D701D701C8
:1019C000D7014601D701D701D701BC008100C20170
:1019D000D701D701D701D701DD00D701D701FF001B
:1019E0008501D701D7016801D701A2001C01700051
:1019F000B701022388F800305C4689E1012388F8AA
:101A000000305C4684E1032388F800305C467FE1C7
:101A1000002388F800305C467AE1009625202946AC
:101A20000DF117023B46FFF7C5FD05465C466FE129
:101A3000DAF804308DF81730614A1278C2EB0212DE
:101A4000DBB203EB02135F4D1D445C460AF1040A4E
:101A50005EE105F1F0025B4BD11A5B4880FB01406F
:101A60000844C917C1EBE010C0B2C0EB001003EB93
:101A70000010854280F04581002105F8011B98F88F
:101A80000030022B84BF117001328542F5D105462A
:101A90005C463DE14A4B1B78062B00F234815A1C10
:101AA00047490A7098F80020012A01D902330B70C7
:101AB000434B1B78C3EB031306EB0313414D1D444B
:101AC0008DF817605C4623E10AF104030393DAF80A
:101AD0000420C9F8002004F1030BDFF8F4A0A37878
:101AE000303B8AF80030394C10782146FFF71CFB58
:101AF000204629460DF117029AF80030FFF71AFD2B
:101B000005465C46DDF80CA002E10AF104030393EC
:101B1000DAF80400C9F8000004F1030BDFF8B0A004
:101B2000A378303B8AF80030284C2146FFF7AEFA04
:101B300000230370204629460DF117029AF8003061
:101B4000FFF7F8FC05465C46DDF80CA0E0E00AF182
:101B5000040BDAF80400C9F8000004F1030AA278C3
:101B6000303AD2B21A4C22701849FFF79FF900237D
:101B70000370164829460DF117022378FFF7DAFCA7
:101B800005465446DA46C3E00AF104030393DAF843
:101B90000430C9F800300A4C484621789DF81720D7
:101BA000FFF7ACFE8DF817002378C3EB031300EBAF
:101BB0000310044D05445C46DDF80CA0A8E000BF0E
:101BC0009707001058EC072089888888980500102E
:101BD0008405001080050010970500100AF1040329
:101BE000039304F1030BA378732B40F08E80DAF893
:101BF00004301B68C9F800304A4C484621789DF8EB
:101C00001720FFF77BFE8DF817002378C3EB031333
:101C100000EB0310444D05445C46DDF80CA077E072
:101C20000AF104030393DAF804301868C9F80000D5
:101C3000FEF7C2FD3B4C21789DF81720FFF75EFEB2
:101C40008DF817002378C3EB031300EB0310364D18
:101C500005445C46DDF80CA05AE00AF10403039346
:101C6000DAF80400C9F80000FEF7A6FD2D4C217833
:101C70009DF81720FFF742FE8DF817002378C3EB7D
:101C8000031300EB0310284D05445C46DDF80CA05F
:101C90003EE000960F2029460DF117023B46FFF764
:101CA00089FC05465C4633E000960D2029460DF17F
:101CB00017023B46FFF77EFC05465C4628E000968F
:101CC000142029460DF117023B46FFF773FC054629
:101CD0005C461DE00096162029460DF117023B4692
:101CE000FFF768FC05465C4612E0009629460DF1B8
:101CF00017023B46FFF75EFC0546013408E05C46F0
:101D000006E05C4604E05C4602E05C46DDF80CA0C0
:101D10002378002B7FF40FAE9DF8170007B0BDE8C5
:101D2000F08F00BF9707001058EC07202DE9F04115
:101D300082B004460E461546FF291CBF544B19704D
:101D4000FF2A1CBF534B1A70514B1978C1EB01117C
:101D5000504B1B7803EB01114F4B1944DFF83481D2
:101D60004E4F2078252840F083806378253B4D2B0B
:101D70007CD8DFE803F0337B7B7B7B7B7B7B7B7BCF
:101D80007B7B7B7B7B7B7B7B7B7B7B7B7B7B7B7BA3
:101D90007B7B7B2D7B2A7B7B7B277B7B7B7B7B30D1
:101DA0007B7B7B7B7B7B7B747B6C7B7B7B7B7B7B99
:101DB0007B7B7B7B3B7B7B7B7B7B7B7B7B7B7B7BB3
:101DC0007B7B7B5B02233B7050E003233B704DE049
:101DD00001233B704AE000233B7047E0009525203B
:101DE00042463346FFF7E6FB01463FE001F1F003D0
:101DF000294A981ADFF8A8E08EFB00CE8644C01767
:101E0000C0EBEE1E5FFA8EFECEEB0E1E02EB0E1E38
:101E100071452BD2002001F8010B3A78012A84BFCA
:101E2000187001337145F6D171461FE0184B1B78CD
:101E3000062B1BD80133DBB2154A1370C3EB031317
:101E400005EB03131449194488F800500EE000957F
:101E50000F2042463346FFF7ADFB014606E00095F2
:101E60000D2042463346FFF7A5FB0146023406E04B
:101E7000009542463346FFF79DFB01460134237827
:101E8000002B7FF46EAF034B187802B0BDE8F081F1
:101E9000970700109407001058EC072097050010D2
:101EA00089888888F0B4174B03EBC004C1EB01119B
:101EB00002EB0111144FCE19013413F83050022DEA
:101EC00002D0032D06D00CE00023CB550432D0B253
:101ED000013608E00023CB5573700632D0B20236CB
:101EE00001E00632D0B2731E013DEDB23544294601
:101EF00014F8012B03F8012F8B42F9D100236B70EA
:101F0000F0BC704700EA030058EC07202DE9F04FC1
:101F1000FF2A1CBF7C4B1A70FF291CBF7B4B19701A
:101F20007B4901EBC005794B1F78C7EB0717764B50
:101F30001B7803EB0717774C274411F83040764B9A
:101F40001B78042B00F2DC80DFE803F00314622628
:101F50009A000132224402F0FF02791E27443846DB
:101F600015F8013F5B0801F8013F8142F8D10023D9
:101F70007B70C5E002EB4402D2B2BB1C023407EB1B
:101F8000440715F8011F490803F8021C03F8011C57
:101F90000233BB42F5D1B3E0023202EB440202F05D
:101FA000FF02BE1C023407EB44074FF004084FF059
:101FB000030C4FF001094FF0000E15F8014F6408B3
:101FC000404661464B46F246234218BF41EA0A0AA0
:101FD0005B00DBB28900C9B20138F5D1B34606F81F
:101FE00002AC06F801AC40466146F246234218BFF7
:101FF00041EA0A0A5B00DBB28900C9B20138F5D1B7
:102000008BF8EEA08BF8EFA00236BE42D5D177E078
:102010000132224402F0FF0207F1EF09781E274443
:10202000BA464FF004084FF0030C4FF0000E15F8BD
:10203000016F7608444661460123F346334218BFD8
:1020400041EA0B0B5B00DBB28900C9B2013CF5D160
:1020500000F801BF44466146F346334218BF41EAE7
:102060000B0B5B00DBB28900C9B2013CF5D109F86A
:1020700001BF5045DBD100237B7087F8F1303FE092
:10208000023202EB440202F0FF02FE1C04EB4404A5
:10209000063427444FF004084FF0030C4FF00109B9
:1020A0004FF0000E15F8014F6408404661464B465C
:1020B000F246234218BF41EA0A0A5B00DBB28900FC
:1020C000C9B20138F5D1B34606F803AC06F802AC44
:1020D00006F801AC40466146F246234218BF41EA89
:1020E0000A0A5B00DBB28900C9B20138F5D18BF86E
:1020F000EDA08BF8EEA08BF8EFA00336BE42D1D155
:102100001046BDE8F08F00BF94070010970700103D
:1021100000EA030058EC0720970500102DE9F04F66
:10212000FF2A1CBF924B1A70FF291CBF914B1970DC
:10213000914901EBC0068F4B93F80080C8EB08185B
:102140008B4B1B7803EB08188C4B9844731C11F8CD
:1021500030E08B490978042900F20681DFE801F0BC
:1021600003217C39C3000132724402F0FF02414670
:102170000EF102000644834CA14202D218784008B6
:10218000087001330131B342F6D10EF1010E08EBB4
:102190000E017C4B994200F2E780002308F80E30D4
:1021A000E2E002EB4E02D2B208F102030EF10200AD
:1021B00008EB4000734D16F8011F9C1EAC4204D280
:1021C000490803F8021C03F8011C02338342F2D1D0
:1021D000CAE0023202EB4E0202F0FF0247460EF165
:1021E000010008EB40004FF0040A4FF003094FF0E4
:1021F0000008DFF890C116F8015F6D0854464946A3
:102200000123C6462B4218BF41EA0E0E5B00DBB22B
:102210008900C9B2013CF5D1BB4667453CBF87F890
:1022200000E087F801E054464946C6462B4218BFF5
:1022300041EA0E0E5B00DBB28900C9B2013CF5D168
:1022400007F1F00363453CBF8BF8F0E08BF8F1E059
:1022500002378742CFD187E00132724402F0FF0299
:1022600008F1F00C0EF1010AC24447464FF0040990
:10227000444816F8015F6D084C46032101234FF0D6
:10228000000B2B4218BF41EA0B0B5B00DBB289004D
:10229000C9B2013CF5D1874298BF87F800B04C46DF
:1022A00003214FF0000B2B4218BF41EA0B0B5B00E0
:1022B000DBB28900C9B2013CF5D1844538BF8CF846
:1022C00000B001370CF1010C5745D2D10EF1F10EDF
:1022D00008EB0E012B4B9A4546D2002301F8F03C47
:1022E00008F80E3040E0023202EB4E0202F0FF022C
:1022F00008F103070EEB4E00063040444FF004088F
:102300004FF0030C4FF001094FF0000E16F8015F7B
:102310006D08444661464B46F2462B4218BF41EADF
:102320000A0A5B00DBB28900C9B2013CF5D1BB46A9
:1023300007F803AC07F802AC07F801AC4446614665
:10234000F2462B4218BF41EA0A0A5B00DBB2890061
:10235000C9B2013CF5D18BF8EDA08BF8EEA08BF85B
:10236000EFA003378742D1D11046BDE8F08F00BF00
:10237000940700109707001000EA030058EC0720AC
:1023800097050010F8F10720164B1B78012B1CD97C
:10239000C0EB0013144A02EB031303F1F001002217
:1023A00003F8012B8B42FBD106281AD8431CDBB261
:1023B000C3EB03120C4B03EB021303F1F0010022F9
:1023C00003F8012B8B42FBD17047C0EB0010064B8A
:1023D00003EB001303F1F001002203F8012B8B4201
:1023E000FBD170479705001058EC072010B500246A
:1023F000E0B2FFF7C9FF0134082CF9D110BD00BFCE
:1024000010B50024E0B2FFF7BFFF0134082CF9D16A
:1024100010BD00BF014B1878704700BF8505001044
:102420000022014B1A7070478505001010B4174B3D
:10243000197091B9072823D8C0EB0012144B03EB95
:102440000212144C631EF03412F8011F03F8011F2E
:10245000A342F9D1104B187012E0062810D8C0EB37
:1024600000120B4B03EB02120A4C631E04F5F074CE
:1024700012F8011F03F8011FA342F9D1064B18708F
:102480000022064B1A705DF8044B7047A20500103D
:1024900057EC0720A40500103C0000108505001033
:1024A000164B1A78072A28D8154B1B788BB9C2EB24
:1024B0000212144B03EB0212134B03F1F10013F859
:1024C000011B02F8011F8342F9D1FF220B4B1A7046
:1024D00010E0C2EB02120B4B03EB02120A4B03F2A9
:1024E000E11013F8011B02F8011F8342F9D1FF220A
:1024F000024B1A700122054B1A7070473C00001005
:10250000A205001057EC0720A40500108505001057
:10251000C0EB001001EB0010084B1844C1F1F001B2
:1025200000290ADD10B40246002402F8014B131AF8
:10253000DBB28B42F9DB5DF8044B704758EC0720A7
:1025400010B4C0EB001001EB001125480144254BED
:102550001B78022B04D0032B05D1002A21DC34E0A8
:10256000002A0DDC18E0002A06DD0A44002301F8E9
:10257000013B9142FBD100E00A46002313702CE09E
:102580000B4601F1EF0011440C46002203F8012B29
:1025900000F8012FA342F9D100230B7081F8F0302D
:1025A0001BE08B1C14460020023C03F8020C83F84D
:1025B000EE0003F8010C83F8EF000233002CF3DC8B
:1025C000013A22F001020232114400230B7081F81B
:1025D000F03081F8E13181F8D1325DF8044B704779
:1025E00058EC07209705001070B584B09DF8244082
:1025F000012C04D0022C0CBF2D26042600E02B2633
:102600009DF8204014B18DF800603AE00478302C39
:1026100002D08DF8006034E004248DF80040447846
:10262000302C03D0441C8DF801602EE004248DF87A
:10263000014003248DF802408478302C03D002300E
:102640008DF8036028E004248DF80340C478302C12
:1026500003D0C51C8DF8046022E004248DF80440EA
:1026600003248DF805400479302C03D0041D8DF827
:1026700006601CE004248DF8064005308DF80760E4
:1026800019E0441C00788DF80100601C24788DF856
:1026900002401C248DF80340451C00788DF804008E
:1026A0006C1C28788DF805001C208DF80600601C35
:1026B00024788DF8074004788DF80840A3B1013BD9
:1026C0002E248DF8094044788DF80A4013F0FF035A
:1026D0000DD084788DF80B40012B0BD0C3788DF88A
:1026E0000C300DF10D0306E00DF1090303E00DF1CF
:1026F0000B0300E003AB002018706846FFF716FBE1
:1027000004B070BD10B44BBB0378302B26D104232A
:102710000B704378302B02D04C1C431C22E0042366
:102720004B708B708378302B02D00230CB1C20E0B2
:102730000423CB70C378302B02D00431C41C1CE0BE
:1027400004230B714B710379302B02D004308B1DA5
:102750001AE0CC1D04238B71411D19E04C1C431C55
:1027600000780870581C1978234603F8021B1C21B6
:102770006170591C441C00781870601C24780B464A
:1027800003F8024B1C244C705C1C411C0078187030
:102790000B7823700AB9601C11E0013A2E23637094
:1027A0004B78A37012F0FF0201D1E01C07E08B7898
:1027B000E370012A0FBF201D601DCB7823715DF8E7
:1027C000044B704770B50D461646214C21461A46FB
:1027D0009DF81030FFF796FF0023037020782946FC
:1027E0003246FFF793FB024660782946FFF78EFBDF
:1027F000421EA0782946D2B2FFF788FB421EE0783D
:102800002946D2B2FFF782FB024620792946FFF71C
:102810007DFB421E60792946D2B2FFF777FB421E4C
:10282000A0792946D2B2FFF771FB0246E07929462A
:10283000FFF76CFB0246207A40B108342946FFF7C7
:1028400065FB024614F8010F0028F7D1104670BD51
:102850008805001070B50E461546074C21461A46ED
:102860009DF81030FFF74EFF0023037020463146DD
:102870002A46FFF75BFA70BD88050010F8B50E46D2
:102880001546174C21461A469DF81830FFF73AFFB7
:1028900000230370207800B32F281BD805E02F28D1
:1028A00003D9207858B92F4617E031462A46FFF75A
:1028B0002DFB054614F8010F0028F0D10DE02A4643
:1028C0003146FFF723FB024614F8010F0028F7D129
:1028D0002F4602E0024C2078F1E73846F8BD00BFF1
:1028E0008805001070B50E461546114C21461A4653
:1028F0009DF81030FFF706FF00230370214602E029
:102900000A462F2B04D80A4611F8013B002BF7D1B9
:10291000541E12F8010C40B131462A46FFF7F6FA70
:10292000054614F8010F0028F6D1284670BD00BFF7
:102930008805001038B50D461446FDF73DFF2946C1
:102940002246FEF7DBFF38BD10B40E4B197801F0BC
:10295000FD0100230C4C0278252A01D102300AE047
:1029600014F832201344DBB2012904BF9B18DBB2F8
:102970000133DBB201300278002AECD118465DF851
:10298000044B70479705001000EA0300F8B50646AF
:102990000F4615469C1A0068FFF7D6FF201A00EB79
:1029A000D07005EB6002D2B230463946AA4238BF39
:1029B0002A46FEF7A3FFF8BD70B50E4615461C4625
:1029C000FDF7FAFE31462A462346FFF7DFFF70BDCA
:1029D000F8B50F461646044610F8012B202AFAD007
:1029E000042AF8D09D1B2046FFF7AEFF281A00EB03
:1029F000D07006EB600220463946D2B2FFF796F956
:102A0000F8BD00BFF8B507460E4615461C460846F9
:102A100011469A1AFFF794FD3846FFF795FF201AE2
:102A2000C2B238463146AA4238BF2A46FFF77EF97D
:102A3000F8BD00BF0022014B1A70704797050010C7
:102A40000122014B1A707047970500100322014BB9
:102A50001A707047970500100222014B1A707047D8
:102A6000970500102DE9F0411E2828BF1E2000F018
:102A70001F0000EB4003C0EBC3001A4C00EB040E38
:102A80000EF10103005D1C18C1EB011102EB0111F5
:102A9000154D294401F1F008B8B14E1E01F1EF05C2
:102AA00000F1FF3C5FFA8CFC0CF10207BE4413F806
:102AB000017B06F8017F14F8017B05F8017F73455F
:102AC000F5D10CF101031944984400230B704B70AD
:102AD00088F8003088F8013002321044C0B2BDE8F6
:102AE000F08100BF00F2030058EC072038B504461F
:102AF0000D4620782946FFF7B5FF024614F8013F3E
:102B0000FF2BF6D138BD00BFF8B50F461C46184B59
:102B10001B7900EB8300FFF7E9FF06464FF6FF73D2
:102B20009C4222D0134D20462946FEF745FA2B78C9
:102B3000A3B96A1C042315460132297881B9013BE7
:102B400013F0FF03F7D110E014F8010F39463246B5
:102B5000FFF788FF0646AC42F6D106E00523054D97
:102B60006C1E013BDBB21D44EEE73046F8BD00BFF2
:102B7000DC0400105C04001038B505460C46134612
:102B8000024829462246FFF7BFFF38BD140801005E
:102B900038B505460C461346024829462246FFF73B
:102BA000B3FF38BDD407010038B505460C461346BF
:102BB000024829462246FFF7A7FF38BDE407010077
:102BC00038B505460C461346024829462246FFF70B
:102BD0009BFF38BDF407010038B503460C46154687
:102BE000074819462246FFF781FF0246082D04D800
:102BF000E8B22146FFF736FF0246104638BD00BF57
:102C0000A807010070B504460E46037803F00F03D1
:102C1000023B0B2B07D8DFE803F00D141B2206291B
:102C200030373E454C53304611466288FFF7D4FF9B
:102C300005464BE0304611466288FFF79DFF05468A
:102C400044E0304611466288FFF7AEFF05463DE09E
:102C5000304611466288FFF7B3FF054636E030463E
:102C600011466288FFF794FF05462FE02048314661
:102C70006388FFF749FF054628E01E483146638810
:102C8000FFF742FF054621E01B4831466388FFF706
:102C90003BFF05461AE0194831466388FFF734FFC9
:102CA000054613E0164831466388FFF72DFF0546B9
:102CB0000CE0144831466388FFF726FF054605E01F
:102CC000114831466388FFF71FFF054694F900302D
:102CD000002B06DA132031462A46FFF7C3FE0546CD
:102CE00004E0102031462A46FFF7BCFE284670BD9E
:102CF00098070100B0070100440801002408010002
:102D00003408010004080100C0070100F0B52F28B5
:102D100084BF3038C0B23BB1C0EBC000C0EBC000D4
:102D2000214D00EB050E06E0C0EBC000C0EBC0007B
:102D30001E4D00EB050EC1EB011102EB01111C4B06
:102D400019440EF101039EF80000451EEEB238B39F
:102D50004C1EB71C774413F8015B04F8015FBB42BB
:102D6000F9D10DE013F8015F04F8015FBB42F9D11E
:102D70000EE013F8014F01F8014FAB42F9D10FE01B
:102D80000EF1100301F1EF040EF111073744E9E7EA
:102D90000EF1200301F2DF110EF121053544E8E7C1
:102DA0001044C0B2F0BD00BFCCF4030070F80300C3
:102DB00058EC0720F0B52F2884BF3038C0B23BB1A3
:102DC000C0EBC000C0EBC000354F00EB070E06E0C3
:102DD000C0EBC000C0EBC000324F00EB070EC1EBF0
:102DE000011102EB0111304D0D440EF101039EF86B
:102DF0000000471EFFB248B1691EBE1C764413F89E
:102E0000014B01F8014FB342F9D12BE005F1F0017C
:102E1000264B99423BD30346013BDBB2FF2BFBD150
:102E200006E013F8014F01F8014FB342F9D126E053
:102E300005F5F0751D4B9D4201D230B92CE00346DB
:102E4000013BDBB2FF2BFBD126E00EF1210E0EF190
:102E5000FF33691E774413F8014F01F8014FBB425D
:102E6000F9D119E005F1F001104B9942D3D20EF1DE
:102E7000100305F1EF010EF111063E44D1E705F50F
:102E8000F0750A4B9D42DAD20EF1210EDFE705F50F
:102E9000F075064B9D42D2D21044C0B2F0BD00BFC7
:102EA000CCF4030070F8030058EC0720F8F1072079
:102EB0002DE9F04180460E4615461F469DF8183014
:102EC000002B51D10378302B4ED10F200023FFF778
:102ED0001DFF08F1010498F80130302B4CD105F1A9
:102EE00010020F203146D2B20023FFF70FFF08F186
:102EF000020405F120020F203146D2B20023FFF771
:102F000005FF98F80230302B47D105F12A020F2037
:102F10003146D2B20023FFF7F9FE08F1030498F816
:102F20000330302B42D105F13A020F203146D2B2A4
:102F30000023FFF7EBFE08F1040405F14A020F201D
:102F40003146D2B20023FFF7E1FE98F80430302B6F
:102F50003DD105F154020F203146D2B20023FFF7D4
:102F6000D5FE08F1050460E0444614F8010B314633
:102F70002A460023FFF7CAFE05F1100214F8010BE0
:102F80003146D2B20023FFF7C1FE05F120020A202C
:102F90003146D2B20023FFF7B9FE05F12A0214F838
:102FA000010B3146D2B20023FFF7B0FE05F13A0221
:102FB00014F8010B3146D2B20023FFF7A7FE05F14A
:102FC0004A020A203146D2B20023FFF79FFE05F1E4
:102FD000540214F8010B3146D2B20023FFF796FEDB
:102FE00023E005F174020B203146D2B20023FFF733
:102FF0008DFE05F17E0260783146D2B20023FFF7E4
:1030000085FEF7B1A5F17202A0783146D2B2002355
:10301000FFF77CFE012F14D0A5F16202E078314663
:10302000D2B20023FFF772FE0BE005F164022078B4
:103030003146D2B20023FFF769FE013FFFB2022FF3
:10304000CFD90022024B1A601046BDE8F08100BFC4
:10305000900700102DE9F04782460D461646984627
:1030600090F8009002F11007FFB29DF82030002B7D
:103070005CD10F20FFF74AFE9AF80130302B55D172
:103080000F2029463A460023FFF740FE07460AF183
:1030900002049AF80230302B51D106F120020F20A1
:1030A0002946D2B20023FFF731FE0AF1030406F1EC
:1030B00030020E202946D2B20023FFF727FE074632
:1030C0009AF80330302B4BD106F13A020F202946F3
:1030D000D2B20023FFF71AFE07460AF104049AF859
:1030E0000430302B45D106F14A020F202946D2B2D6
:1030F0000023FFF70BFE0AF1050406F15A020E2029
:103100002946D2B20023FFF701FE07469AF80530A0
:10311000302B3FD106F164020F202946D2B20023A2
:10312000FFF7F4FD07460AF1060464E09AF801008F
:1031300029463A460023FFF7E9FD0AF1020406F1A9
:10314000200214F8010B2946D2B20023FFF7DEFD5E
:1031500006F130020A202946D2B20023FFF7D6FD3D
:1031600006F13A0214F8010B2946D2B20023FFF708
:10317000CDFD06F14A0214F8010B2946D2B2002314
:10318000FFF7C4FD06F15A020A202946D2B20023F5
:10319000FFF7BCFD06F1640214F8010B2946D2B218
:1031A0000023FFF7B3FD26E0A6F17C020B202946A1
:1031B000D2B20023FFF7AAFDA6F172026078294679
:1031C000D2B20023FFF7A2FD824657B3A6F16202F6
:1031D000A0782946D2B20023FFF798FD8246012F3E
:1031E0001FD0A6F15202E0782946D2B20023FFF7A1
:1031F0008DFD824615E006F1740220782946D2B290
:103200000023FFF783FD8246A7F1100248462946B6
:10321000D2B20023FFF77AFD08F1FF37FFB2022F89
:10322000C2D90022024B1A605046BDE8F08700BFA9
:10323000900700102DE9F04781460D461646984646
:1032400090F800A002F11007FFB29DF82030B3BB48
:103250000F20FFF75BFD99F80330302B2FD10F20A3
:1032600029463A460023FFF751FD074609F10404B9
:1032700099F80430302B2BD106F120020F2029467B
:10328000D2B20023FFF742FD09F1050406F1300236
:103290000E202946D2B20023FFF738FD074699F8E1
:1032A0000530302B25D106F13A020F202946D2B243
:1032B0000023FFF72BFD074609F106044AE099F8C1
:1032C000030029463A460023FFF720FD09F10404D4
:1032D00006F1200214F8010B2946D2B20023FFF7B1
:1032E00015FD06F130020A202946D2B20023FFF76D
:1032F0000DFD06F13A0214F8010B2946D2B2002363
:10330000FFF704FD26E006F15A020B202946D2B24F
:103310000023FFF7FBFC06F1640260782946D2B275
:103320000023FFF7F3FC814657B306F17402A0783F
:103330002946D2B20023FFF7E9FC8146012F1FD0B6
:10334000A6F17C02E0782946D2B20023FFF7DEFC2A
:10335000814615E006F14A0220782946D2B20023C0
:10336000FFF7D4FC8146A7F1100250462946D2B29D
:103370000023FFF7CBFC08F1FF37FFB2022FC2D9C1
:103380000022024B1A604846BDE8F0879007001003
:103390002DE9F04705460F4690461E4690F800A0DE
:1033A00002F11004E4B29DF8203073B90F20FFF74A
:1033B000ADFC6B79302B08D10F2039462246002313
:1033C000FFF7A4FC044606352EE06879394622460C
:1033D0000023FFF79BFC063526E008F130020B20A6
:1033E0003946D2B20023FFF791FC08F13A0268781F
:1033F0003946D2B20023FFF789FC81464CB308F16D
:103400004A02A8783946D2B20023FFF77FFC8146F2
:10341000012C1ED008F15A02E8783946D2B20023B6
:10342000FFF774FC814614E008F120022878394641
:10343000D2B20023FFF76AFC8146A4F11002504685
:103440003946D2B20023FFF761FC741EE4B2022CAD
:10345000C3D90022024B1A604846BDE8F08700BF7E
:103460009007001038B505460C4601F120020E20E9
:103470002946D2B20023FFF749FC04F14A020E208C
:103480002946D2B20023FFF741FC04F174020E205A
:103490002946D2B20023FFF739FC38BD08B5054AEA
:1034A000136801331360B3F5FA7F01D9FFF7DAFF30
:1034B00008BD00BF9007001038B50025084C2570E6
:1034C000084C217008490A70084A1370084B9DF88F
:1034D00010201A700068FDF747FC064B186038BDD5
:1034E0008D070010850700108F0700108C07001053
:1034F0008E0700108807001030B583B004460068BE
:10350000154B1B6898421ED9FDF72EFC124A10601D
:1035100010464FF47A71FDF707FC104D20462946FE
:10352000FDF7A8FB0E4B19780E4B1A780E4B1B7843
:103530000E48007800902846FFF7BAFC01220C4B99
:103540001A70FF2006E0064B1878064B1978FFF733
:10355000A5FF002003B030BD8807001074050010DF
:10356000850700108F0700108C0700108E070010D1
:103570003D00001070B504460E4600252078314607
:103580002B46FFF7C3FB024614F8013FFF2BF5D192
:1035900070BD00BFF0B500F00F0000EB40008001EF
:1035A000584BC5186C1CC05CC1EB011102EB01113A
:1035B000554BCE18002841D0731E00F1FF3E5FFA34
:1035C0008EFE06EB0E0714F8011B03F8011FBB4229
:1035D000F9D125E013F8014B01F8014FBB42F9D1B5
:1035E00042E011F8014B03F8014FBB42F9D150E022
:1035F00013F8014B01F8014FBB42F9D159E011F822
:10360000014B03F8014F7345F9D165E013F8014B05
:1036100001F8014FAB42F9D107F2B1473E446AE0ED
:103620000EF10101741800237354637005F1200337
:1036300006F1EF010EF121072F44CBE70024CC5413
:10364000747086F8F04086F8F14086F8E04186F81C
:10365000E14186F8D04286F8D14286F8C04386F828
:10366000C14306F5966646E00EF1F10E06EB0E013B
:10367000002306F80E304B7005F1400106F5F07C92
:1036800006F2DF1300F1FF3E5FFA8EFE0CEB0E0731
:10369000A7E70EF101010CEB010400230CF8013047
:1036A000637005F1600306F2CF210EF161072F442C
:1036B0009EE70EF2D12E06EB0E01002306F80E3027
:1036C0004B7005F1800106F5707C06F2BF33471E92
:1036D000FFB20CEB070E92E7791C0CEB0104002300
:1036E0000CF80130637005F1A00306F2AF4107F159
:1036F000A10425448AE7002333707370023210441A
:10370000C0B2F0BD94FB000058EC072038B5044669
:103710000D46007930280EBF0F203038C0B2FFF7B9
:1037200039FF024660793038C0B22946FFF732FFD0
:1037300038BD00BFF0B5012B0CBF2A4B2A4B4D24DE
:1037400004FB0030441C0578C1EB011102EB0111B0
:10375000264B01EB030C002D41D00CF1FF336E1E04
:10376000F6B20CEB060714F8011B03F8011FBB426D
:10377000F9D114E011F8014B03F8014FB342F9D12C
:103780001AE011F8014B03F8014F7345F9D11EE01F
:1037900011F8014B03F8014F8342F9D11FE006F104
:1037A000010E00F11401C5F1F00707EB0E039C4474
:1037B0000CF1FF336644DDE700F12701BE44F44419
:1037C0000CF1FF336E1EF6B20CEB060ED9E7731C3C
:1037D00000F13A01F8186044431E3044D8E72A4407
:1037E000D0B2F0BD54080100740D010058EC072060
:1037F000F0B5012B0CBF3D4B3D4B4D2404FB00307D
:10380000441C0578C1EB011102EB0111394F01EBAA
:10381000070E002D45D00EF1FF336E1EF6B20EEBF3
:10382000060714F8011B03F8011FBB42F9D12BE076
:1038300011F8014B03F8014FB342F9D137E02B46A1
:10384000013B13F0FF03FBD141E011F8014B03F8FA
:10385000014F7345F9D10CF1010C66443BE000F1D6
:103860003A0135B93FE02B46013B13F0FF03FBD192
:1038700039E07B1E681EC0B2074411F8010B03F843
:10388000010FBB42F9D12EE006F1010C00F1140149
:10389000C5F1F00707EB0C039E440EF1FF337644AD
:1038A000C6E70EF53477144B9F421CD218E007EBA5
:1038B0000C067644104B9E42C1D200F12701731EC4
:1038C00005F1FF3C5FFA8CFC06EB0C0EBDE76B1EAE
:1038D000DBB201331E443744074B9F42C3D2BEE7DD
:1038E00000F13A01BDE72A44D0B2F0BD540801000E
:1038F000740D010058EC0720F8F107202DE9F04F76
:10390000C1EB011102EB0115524B1D44461C90F80E
:1039100000B0514B1B78022B27D0032B5ED0012B1C
:103920000ED06B1E0BF1FF31C9B20D4410F8011F10
:1039300003F8011FAB42F9D15A44D0B2BDE8F08F71
:10394000023503460BF1FF31C9B20131084413F8C7
:10395000011F05F8021C197805F8011C0235834285
:10396000F5D15A44D0B2BDE8F08F05F1EF08013D22
:103970000BF1FF33DBB2023318444FF0040C4FF06D
:10398000030E002796F800A0644671460123B9464D
:1039900013EA0A0F18BF41EA09095B00DBB289008C
:1039A000C9B2013CF4D105F8019F96F800A0644625
:1039B0007146B94613EA0A0F18BF41EA09095B00CC
:1039C000DBB28900C9B2013CF4D108F8019F01368D
:1039D0008642D7D15A44D0B2BDE8F08F02350BF100
:1039E000FF33DBB2023318444FF0040A4FF00309EF
:1039F0004FF0000896F800E0544649460123474638
:103A000013EA0E0F18BF0F435B00DBB28900C9B287
:103A1000013CF5D1AC4605F8027C05F8017C96F82E
:103A200000E054464946474613EA0E0F18BF0F43BD
:103A30005B00DBB28900C9B2013CF5D18CF8EE70B5
:103A40008CF8EF70013602358642D3D15A44D0B299
:103A5000BDE8F08F58EC0720970500102DE9F04FD6
:103A6000C1EB011102EB0111037802EB430202F0FA
:103A7000FF0A1E4D0D440646013BDBB2013300EB4D
:103A800003084FF0040C4FF0030E4FF0010900271C
:103A90000136344696F800B0614672464B463846C9
:103AA00013EA0B0F18BF10435B00DBB29200D2B2D7
:103AB0000139F5D1AB4605F8020C05F8010C207868
:103AC000614672463C46034218BF14435B00DBB2BA
:103AD0009200D2B20139F6D18BF8EE408BF8EF406C
:103AE00002354645D4D15046BDE8F08F5AEC072048
:103AF00030B4C1EB011102EB0115124BE91800784B
:103B0000114B1B78022B0BD04B1E441EE4B20D1937
:103B1000002103F8011FAB42FBD10244D0B20EE0FA
:103B20004B1E01F1EF04451EEDB20D44002103F8D8
:103B3000011F04F8011FAB42F9D10244D0B230BCDE
:103B4000704700BF58EC07209705001010B4C1EB78
:103B5000011102EB0112074C2244541E013BDBB25F
:103B6000134414F8011F014321709C42F9D15DF800
:103B7000044B704758EC0720C0EB001001EB00111C
:103B8000084BC818CA54084B1B78012B02D0032BD2
:103B900002D0704742707047427080F8F12080F880
:103BA000F020704758EC0720970500100E4BD3F813
:103BB000C42042F40012C3F8C4200C4A0220506012
:103BC000D3F8AC1141F48061C3F8AC11A3F55023D4
:103BD000196841F00041196020215960106140F2DC
:103BE000C7231360704700BF00C00F40008008402B
:103BF000084AD2F8C43043F00053C2F8C430064A31
:103C0000136B43F001031363044B054A5A6000220F
:103C10009A60704700C00F400040005000410050C3
:103C2000088008400B4B9A6842F001029A601A69BA
:103C300042F001021A6103F5807318604FF4843278
:103C40001A6141F08061D9601A6942F001021A617B
:103C5000704700BF00400050064AD36813F0010FC0
:103C6000FBD0044B98601A46D36813F0100FFBD1B9
:103C7000704700BF0080084010B5E220FFF7ECFF5E
:103C8000E320FFF7E9FFE220FFF7E6FFC020FFF7A0
:103C9000E3FFA620FFF7E0FFA420FFF7DDFFA12050
:103CA000FFF7DAFF0E4B1C68A0782030C0B2FFF798
:103CB000D3FF6078FFF7D0FF8120FFF7CDFFE078DA
:103CC000FFF7CAFF2F20FFF7C7FFA620FFF7C4FFAB
:103CD0004020FFF7C1FFAF20FFF7BEFF10BD00BFC0
:103CE0009C070010034B4FF48012DA614FF400324E
:103CF000DA61704700C0092008B5FFF7F3FFFFF74E
:103D0000BBFF4FF48012014B9A6108BD00C009202F
:103D1000034B4FF40022DA614FF40032DA6170474E
:103D200000C0092008B5FFF7F3FFFFF7A5FF4FF428
:103D30000022014B9A6108BD00C00920034B4FF4DB
:103D40008012DA614FF400329A61704700C0092096
:103D5000034B4FF40022DA614FF400329A6170474E
:103D600000C00920034B4FF4C012DA614FF4003257
:103D7000DA61704700C00920344B1B78002B63D0F8
:103D800010B5334B1B78334A52F82340324AD35C88
:103D9000FF2B0AD14FF4C012304B9A61FFF7CEFFD0
:103DA00020467821FFF73EFF1CE0FE2B0AD14FF49E
:103DB00080122A4B9A61FFF7CBFF20467821FFF74C
:103DC00031FF0FE04FF40022244B9A61FFF7CAFF46
:103DD00023481F4B1B78204AD35C503B83720F2132
:103DE000FFF720FF1A4A13780133DBB213701A2B46
:103DF00029D94FF4C012194B9A610023144A137049
:103E0000124A1370164BC0221A70A6205870A122B5
:103E10009A70144A126891782031D97051781971CA
:103E20002F21597198714021D971AF2018725972A0
:103E3000B02199721021D97212781A7381225A73A3
:103E4000094A52789A7310BD704700BF9907001055
:103E500098070010400000109812010000C00920CF
:103E6000A00700109C070010DC04001038B51C4BA4
:103E70005B6913F0807F14BF1A4A1B4A1B4B1A6000
:103E80001B4C1A4D2B68DB7863701A4B1F22DA61CA
:103E90009A614FF48032DA619A61FFF787FE02225D
:103EA000154B5A62FFF7A4FE0023144A1370FF213A
:103EB000134A1170134A1370134B40221A70B02228
:103EC0005A7010229A702A681278DA7081221A7158
:103ED00062785A71FFF710FFFFF724FF38BD00BF6B
:103EE00020C00920B4120100941201009C070010A8
:103EF000DC04001000C00920008008409907001071
:103F00009607001098070010A00700106322054BC9
:103F10001A700023044A1370044A13700122044BE0
:103F20001A70704795070010980700103D000010A8
:103F3000990700106322054B1A700023044A13707E
:103F4000044A13700122044B1A7070479507001041
:103F5000980700103D0000109907001038B5FEF7D3
:103F60006FFD174C204600211422FDF7C7FC04F119
:103F7000080000217822FDF7C1FC00F10F0204F1D6
:103F800010000021D2B2FDF7B9FC0E480221142224
:103F9000FDF7B4FC0C4804211422FDF7C7FE0446CB
:103FA0000A4D0B4B58892946FDF738F8002303705A
:103FB000621D681C0421D2B2FDF7B8FE38BD00BFF7
:103FC000B812010064130100F81201000804001087
:103FD0004004001008B53C4B93F90030032B30D05F
:103FE000042B41D0012B12D04822384B9A61002279
:103FF000374B1A700422344B1A70364B1B6803F58A
:10400000FA63354A13600A22344B1A7008BDFEF772
:10401000F7F90020FFF7A2FF314B1B7823B131489D
:1040200006217822FDF76AFCFF222F4B1A70294BDC
:104030001B6803F57A73284A13600322224B1A7017
:1040400008BD274B1B7813B1FCF72AFA08BD05F011
:10405000D9FF002837D11F4B1A681F4B1B689A42A3
:1040600031D900F0E3FC08BD1C4B1B78A3B1013B28
:10407000DBB21A4A13707BB9FEF7C2F90020FFF7D2
:104080006DFF174B1B7823B1164806217822FDF7E8
:1040900035FCFF22144B1A700C4B5B6913F4007F44
:1040A00011D10C4B1A680C4B1B689A420BD9032296
:1040B000054B1A7005F0C6FE05F080FFFF230B4A82
:1040C0001370034A137008BD1008001040C0092087
:1040D0006405001060050010C4070010C007001040
:1040E000D4080010E0B003003D0000106C03001085
:1040F00008B5064B02225A6010225A61C222DA63C6
:1041000001225A60FCF7E2F908BD00BF00400940F7
:1041100010B5084C2060034653F8041B064AD161D1
:1041200023604268054B1A60FFF7E2FF23680433FF
:10413000236010BDCC07001000400940C8070010E4
:1041400008B5034B5B790BB1FFF7E2FF08BD00BF79
:10415000DC04001008B5074B02225A608222DA63A1
:104160000A22DA6120225A6101225A60FCF7B0F972
:1041700008BD00BF0040094008B5144B1B6823B3BD
:1041800041F28832934203DD6322104B1A6008BD6E
:10419000013B0E4A1360C3B90D4B1B681B6893B1FA
:1041A0004FF6FF72934204D00A4AD361FFF7A0FF93
:1041B00001E0FFF7CFFF064A13685868034908601B
:1041C0000833136008BDFFF7C5FF08BDC80700101E
:1041D000CC070010004009400A4BDB78012B05D0CA
:1041E000022B07D00122074BDA7006E00222054BB2
:1041F000DA7002E00022034BDA70FF22014B1A70E2
:10420000704700BFDC04001008B5124BD3F8AC2196
:1042100042F44042C3F8AC21D3F8C42042F4000277
:10422000C3F8C4200C4A136843F4400313600B4BDB
:104230000022DA6010225A61C222DA6340F2FD6283
:10424000DA61FFF787FF0222054BDA70FFF7C4FF40
:1042500008BD00BF00C00F4000C002400040094040
:10426000DC04001070B5FEF7CBF8FEF7F5FB644BED
:10427000186800210A46FDF741FB624B1A78624B31
:104280001B7850B259B288420FDA013BDBB259B207
:10429000002902DD5C490B7002E001215A4B1970C4
:1042A000594B1B78033359490B70584B1B7852B24A
:1042B00059B28A4210DD0133DBB2544A1370544ABA
:1042C00012785BB251B28B42C4BF504B1A704F4B45
:1042D0001B78033B4C4A137000234E4A13704A4A22
:1042E00011784D4A11704D4A10684D4A10604D4A80
:1042F00013704BB2002B53DD0446002348B2013348
:104300005AB29042FBDC474B19700139C9B20131F6
:1043100004EB8101424B196042E0FEF79DFB2878D7
:1043200043B2092B0BDCC0B2431C2B703146FCF7A7
:10433000D3FE3046374B19785822FDF7F7FC236837
:104340001868FCF739FA384B1860324B1978672235
:10435000FDF7D4FA236804332360FEF77DFB2E4A71
:104360001378591C1170274A92F900205BB29A42C7
:1043700007D12E48274B197855220023FFF7BEFAA4
:1043800005E02A48234B19785522FFF7B1FB214A53
:1043900013780233DBB213705BB2062B03DD06E049
:1043A0001F4C204D224E23681B68002BB5D1164BA5
:1043B00093F90030012B06DD1E480021E9220B464F
:1043C000FFF79CFA04E01B480021E922FFF790FB6D
:1043D000134B1B681B6833B117480621E9220023E1
:1043E000FFF78CFA04E014480621E922FFF780FB6E
:1043F000FF2001F023F9FF22104B1A7070BD00BF9F
:10440000D4070010EA070010F2070010F3070010AD
:10441000F0070010E9070010F1070010E80800108D
:10442000DC070010F4070010EC0700106CFD03001F
:10443000E40700102CFC030044FD03003D000010C5
:1044400008B50B4B186042680A4B1A60036893F971
:1044500000200AB901221A7003681A78064B1A70F4
:104460000022064B1A70064800F0A8FA08BD00BFEB
:10447000D8070010E8080010D4080010E00700106A
:104480008544000038B5844B93F90030032B4AD0A3
:104490000025824B1D700122814B1A70814B1B68D5
:1044A000814C23601868FCF787F9804B1860804BBB
:1044B0001878804B187023687F4A157003F1080242
:1044C00022605B6853B1EBB2013352F8041BDBB2DC
:1044D0000029F9D178490B70734B1A60764B1B7821
:1044E00040B25AB2904202DD0121724A117001219C
:1044F000724A11700321724A11705BB28B4209DD5E
:104500006C4B1B785AB28A4204DDD91E6B4A11707B
:104510006B4A1370FFF7A6FE03225F4B1A7000224E
:10452000684B1A7038BDFDF775FF20B1FDF778FFB5
:10453000FFF798FE38BD594B1B78D3B10022574B7B
:104540001A7000F073FA604B1B785AB2B2F1FF3F59
:1045500002D0514A137002E003224F4B1A705B4B9A
:104560000B229A70534A12785A7000224C4B1A70E0
:1045700038BD574B1B68002B00F08C80013B242B6F
:1045800000F28380DFE803F013815A816F81813468
:10459000818181818181818181818181818181810B
:1045A000818181818181818181815A816F00494826
:1045B000FFF7C6FD00F03AFA434B1B785AB2B2F14E
:1045C000FF3F02D0344A137002E00322324B1A70CC
:1045D0003E4A00239370374909785170304A13706E
:1045E0003B4A136005F06CFBFF22364B1A7038BD56
:1045F0003848FFF7A5FD00F019FA334B1B785AB283
:10460000B2F1FF3F02D0244A137002E00322224B92
:104610001A70284B1B78D9B22C4A917051702E4ACF
:1046200012681268137000231D4A1370284A136021
:1046300005F046FBFF22234B1A7038BD2748FFF7D1
:104640007FFD1C4B1B781C4A92F900105AB2914214
:1046500003D12348FFF774FD19E00133154A1370A5
:10466000FFF700FE13E01D48FFF76AFD114B1B78B2
:104670005AB2012A03D11A48FFF762FD07E0013B55
:104680000C4A1370FFF7EEFD01E005F0A9FC0022D3
:104690000F4B1A6038BD00BF10080010E007001073
:1046A00011080010E8080010DC070010D407001003
:1046B000D4080010EA070010F0070010F2070010FD
:1046C000F30700106C030010EB0700101C0800102B
:1046D000340C0010D8130100D8070010E4130100B7
:1046E000F013010008B5FF22024B1A70FFF7A8FE75
:1046F00008BD00BFEB07001038B505460C4601FBAE
:1047000000F004300AF06EFF0570447000228270E1
:10471000C27038BD08B50AF0B1FF08BD38B50378DE
:104720008B4213D94478031D01FB04F15D18FE2A66
:1047300002D15A54FF2038BD104610F8012B5A54AC
:10474000691C2246FCF7D8FDFF2038BD002038BD8B
:1047500003788B4283BF021D437801FB03200020B6
:10476000704700BF8078704781707047024681783B
:104770004B1CDBB2007898428EBFFF200B46002016
:1047800093707047837813B1013B8370FF23184601
:10479000704700BF08B50B4B1A780B4B1A700022FC
:1047A0000A4B1A7000F042F9094B1B78FF2B02D01C
:1047B000084A137002E00622064B1A70FF22044BCF
:1047C0001A7008BD080800102C0500101108001010
:1047D000EC0800101008001008B51B4B1B688BB3C9
:1047E000012B02D0082B09D011E01848FFF7A8FCD4
:1047F0000222174B1A70FFF7CDFF20E01348FFF796
:104800009FFC0122124B1A70FFF7C4FF17E013F44C
:104810007F4F12D10F4B1B785BB100220A4B1A60FD
:104820000A48FFF78DFC0222094B1A70FFF7B2FF0E
:1048300008BD0948FFF784FC01E005F0D1FB002228
:10484000014B1A6008BD00BF340C0010D8130100E2
:104850001C08001000080010C4130100224B93F93B
:104860000030022B3FD010B5032B39D01F4B1978E5
:104870001F4A117000241C7002221E4B1A70FDF793
:10488000BFFD1D4B186821462246FEF753F8FEF780
:10489000E3F81A4B1B7833B1194B18680221052233
:1048A000FEF748F806E0174B186818B102210522F8
:1048B000FDF73CFAFEF7D0F8134B186806210022EA
:1048C000FEF738F8FEF7B6F8FF23104A13700321FD
:1048D000054A11700E4A137000220E4B1A7010BD5B
:1048E000FFF77AFF10BD7047100800102C0500106C
:1048F00008080010110800100C0800100108001032
:10490000F8070010FC070010040800103D0000101C
:104910001F0C00106D03001010B5094C20600948F1
:104920000160FF200849087008490A60084A1370AE
:104930000022084B1A70084800F040F810BD00BF74
:104940000C080010F80700100108001004080010FF
:10495000EC080010000800105D48000010B5084C7D
:104960002060084801600021074801700748026084
:10497000074A1370074B1970074800F01FF810BD65
:104980000C080010FC0700100108001004080010BB
:10499000EC080010000800105D4800000022014BE8
:1049A0001A70704710080010024B1868024B18600C
:1049B000704700BFC40800103408001038B514490F
:1049C0000B785DB2134A1468134A42F8354002EB83
:1049D000C50200251571114A14600133DBB20B705A
:1049E0005BB20F2B05DD10220A700D4A094B1A60CD
:1049F00001E0084B186000230A4A13700A4A13802A
:104A000000F078FC03F09CFCFEF714F838BD00BF02
:104A1000D0080010C40800103C0800103408001032
:104A2000114D000010080010C808001008B5104A09
:104A30001378013BDBB2137013F0800F07D0002313
:104A400013700C490C4A11600C4A13700AE05BB2F7
:104A50000B4A52F833000849086002EBC3031A7985
:104A6000064B1A7000F046FCFDF7E4FF08BD00BFDE
:104A7000D0080010114D0000C408001010080010EC
:104A80003C08001070B50C46034600B1431E144E9E
:104A90003360144DD8B22946FCF766FB01467078A6
:104AA000FCF762FB0146B078FCF75EFB0146F0784C
:104AB000FCF75AFBAB792370EB7963702B79A37009
:104AC0006B79E370AB782371EB7863712B78A3710A
:104AD0006B78E37100F00EFC04F1080070BD00BFBC
:104AE00030080010140800102DE9F0478146884670
:104AF00000241E4D4FF0200A1D4FE3B203EB0906C0
:104B0000F6B230332B7085F801A057F83400A91C99
:104B1000FFF7B8FF00230370284631464246FDF7F1
:104B200005F90134052CE8D1114F00250F4C4FF049
:104B3000200A08F141085FFA88F8EBB203EB090696
:104B4000F6B23533237084F801A0B86AA11CFFF7D0
:104B500099FF00230370204631464246FDF7E6F8F0
:104B600001350837052DE8D1BDE8F087980400101D
:104B70003C08001070B506460D460D4C50232370BE
:104B8000742363707223A3703D23E3702023237189
:104B90006371A371074B93F90000E11DFCF7ECF979
:104BA00000230370204631462A46FDF7BFF870BD4A
:104BB00098040010D008001070B506460D460D4C44
:104BC000492323706E2363702023A3705522E27063
:104BD0007322227165226271A371074B1868E11D6F
:104BE000FFF750FF00230370204631462A46FDF7A9
:104BF0009DF870BD98040010C408001070B50646FA
:104C00000D460D4C43232370612363706C23A37006
:104C1000E370202323716371A371E371074B18685C
:104C200004F10801FFF72EFF0023037020463146F0
:104C30002A46FDF77BF870BD980400103408001078
:104C40000023054A13700549054A1160054A13708F
:104C5000054A1370704700BFD0080010114D0000C6
:104C6000C4080010100800101108001008B5084B07
:104C70001B7803F0070350F8233013B1054A136083
:104C800002E0054A034B1A60024B1B68984708BDB7
:104C900010080010CC0800109D490000014B18803E
:104CA000704700BFC8080010044B1B8813B1013BBC
:104CB000024A1380014BB3F900007047C808001086
:104CC000014BB3F900007047C808001008B5024B4B
:104CD0001B6803B1984708BDC4080010034B1B684C
:104CE000034A1360034A1360704700BFC4080010F2
:104CF000340800103808001008B5FFF7A1FF024B78
:104D00001A68024B1A6008BD38080010C408001069
:104D100008B5204B93F90030022B3AD0032B28D052
:104D200006F0BCFA03F074FB08F0C8FAFDF768FB64
:104D3000194800210A46FCF7F9FF01200021FFF77E
:104D40005DFF02200021FFF737FF03200021FFF75E
:104D500011FF00206421FFF7C7FE10480621002242
:104D6000FCF7E4FF03220B4B1A70FF220C4B1A7066
:104D700008BD0C4B1B6863B1082B07D10A48FFF72D
:104D8000DFF90022074B1A60FBF74CFA0022054BB3
:104D90001A6008BD100800108414010034FB0000E4
:104DA0003D000010340C0010D813010080B485B011
:104DB00000AF7860074B1A687B681344FB6030BF14
:104DC000044B1A68FB689A42F9D31437BD465DF864
:104DD000047B704760050010704700BF0A4B1B78CA
:104DE00083B110B5094C237803F00703084A52F841
:104DF0002330084A136098472378013303F00F03E8
:104E0000237010BD704700BFF4080010FC080010AC
:104E1000C414010004090010704700BF704700BFB0
:104E2000F8B52B4B5B6913F0807F2A4B5B7814BF7E
:104E3000A3F11E02A3F11402642303FB02F326482C
:104E400080FB0320DB17C3EBE000C5B2FDF7F2FDEA
:104E5000224C28462146FCF767F90026067068B206
:104E60002146FCF789F825230370437020238370C3
:104E7000C670FDF7DFFD204607215A22FCF756FFDA
:104E800007207821FDF744FB06207721F022FEF76A
:104E900073FE0620DC21F022FEF76EFE072077214C
:104EA000FF22FEF769FE0720DC21FF22FEF764FEE9
:104EB0006DB1782407273C26384621463246FEF756
:104EC0005BFE0134E4B2681E10F0FF05F4D1F8BDBA
:104ED00020C00920DC0400101F85EB515C04001089
:104EE00010B5FF24154B1C700620FDF74DFA072066
:104EF000FDF74AFAFDF79EFD102006210022F0235F
:104F0000FEF724FE0E4B1C700E4B1C700E4B1C70DB
:104F10000E4B1C700E4B1C700E4B1A680E4B1A6019
:104F200000230E4A13600E4A13700E4B1C700123AF
:104F30000D4A13700D4A137010BD00BF0009001018
:104F4000C1000010BF000010BE000010EE080010ED
:104F5000EF08001060050010180900101409001077
:104F6000ED080010C00000100F0900100E0900101D
:104F700008B50620FDF708FA0720FDF705FA10200E
:104F800006210022F023FEF7E1FD0E480721322220
:104F90000023FEF7B3FC02460B4807210023FEF76F
:104FA000ADFC0A4B5A780A4B1A70FFF739FF0322FF
:104FB000084B1A700122084B1A700022074B1A7016
:104FC00008BD00BF58FD0300C4FC0300DC04001052
:104FD000210900100F0900100E0900106C030010C9
:104FE00038B5194B1C78194B9B78194A12789A429C
:104FF00027D0174D2B700134E4B2072000211E2268
:10500000FDF79EFAFDF716FD124807210022134610
:10501000FEF774FC0230C2B22B78012B08D013B11A
:10502000022B0AD00DE00C480721FCF77FFE08E0B8
:105030000A480721FCF77AFE03E009480721FCF73C
:1050400075FE014B1C7038BD0E090010DC04001009
:10505000BE000010B8FC0300981401009C1401006D
:10506000A014010038B5044606202146F022FEF7C0
:1050700083FD07202146FF22FEF77EFD651CEDB271
:1050800006202946F022FEF777FD07202946FF2259
:10509000FEF772FDE01CC0B238BD00BF10B5164B64
:1050A0001C781E20FFF7DEFF05F07CFA134B1B680F
:1050B00098421DD005F076FA104B186088B1104860
:1050C00007212222FCF732FEC21C0E480721D2B271
:1050D000FCF72CFEC21C0C480721D2B2FCF726FEBE
:1050E00004E00A4807212C22FDF724FC0134E4B235
:1050F000014B1C7010BD00BF0E0900100809001004
:105100007C200100080A0010240A001078800300A7
:1051100038B5254B1C78254B1A68254B1B689A42DD
:105120003ED9224B1B6803F5FA73214A1360214DC7
:105130002B7801332B70FDF77DFC8720FFF792FF62
:1051400002462B7813F0010F1DD01B4B19880E2936
:1051500008D81A4807210023FEF7D0FBFF22184B7E
:105160001A700DE00023164803701648A0FB0101D9
:1051700009090131144850F821000721FEF7BEFB50
:105180000134E4B20CE00E4B1B784BB100210C4B08
:105190001970072011461422FDF7D2F90134E4B248
:1051A000014B1C7038BD00BF0E09001060050010D7
:1051B00018090010FD0800103609001020FD03003A
:1051C0000C090010CDCCCCCCAC14010038B5094D85
:1051D0002C780134E4B2FDF72DFCA020FFF742FF4C
:1051E000821C05480721D2B20023FEF787FB2C70F2
:1051F00038BD00BF0E09001004FD030030B583B0B8
:10520000334B1C7833483449FBF782FD022805D123
:10521000304B1B68304A12689B1A04E02E4B1B6807
:105220002C4A12689B1AB3F57A7F30D3FDF702FC43
:10523000284B1A68284B1A600022284B1A70BD2090
:10524000FFF710FF0720BF213222FDF779F9244B29
:105250001B682BB123480721C022FCF767FD04E03F
:1052600021480721C022FCF761FD204D194829463D
:10527000FBF700FD0023009328460721C522FDF718
:10528000A1FAFF221A4B1A700134E4B21BE0184A4B
:105290001278C2B1B3F5FA7F15D9FDF7CBFB002226
:1052A000134B1A7020200721C022FCF7FBFD0720BA
:1052B000D1210222FDF744F90720E1210222FDF766
:1052C0003FF90134E4B2024B1C7003B030BD00BFA3
:1052D0000E0900105404001014090010BD00001045
:1052E00028050010A4140100001301005C04001044
:1052F0002009001010B500240A4B1C700A4B1C70CA
:10530000FDF7CEF8FF23094A1370094A1370094AC2
:105310001470094A1370094B1C7003F011F8084B04
:105320001C7010BD00090010FE0800103D000010A8
:105330000E090010FF0800101C050010F4080010F2
:10534000210C0010144B1B7823B3144B1B780BB3A8
:1053500010B5134B1B787BB1124B1A68124B1B68AC
:105360009A4209D900240E4B1C70FFF7C3FF0B4B68
:105370001C700E4B187810BD0C4C20700C4B1B7819
:1053800003F007030B4A52F823300B4A1360984787
:10539000207810BD704700BF00090010210C0010DC
:1053A000FF080010600500101C0900100E09001015
:1053B0000F090010E4140100F008001008B52A4B92
:1053C0001B68002B4FD000F001FA274B1B68812B84
:1053D0000CD004DC232B31D0252B29D034E0852BB5
:1053E00026D0882B14D0832B2ED127E01F48FEF720
:1053F000A7FE1F4B1A781F4B5A7000221E4B1A70C3
:10540000FF231E4A13701E4A1370FFF773FF27E035
:105410001648FEF795FEFF23164A13700021164A20
:105420001170164A1370164A1370FFF763FF17E0E6
:105430001448FEF785FE00F029F908E01148FEF750
:105440007FFE00F045F902E004F0CAFD08E000220A
:10545000054B1A60FFF7E4FC01220B4B1A7008BDE4
:105460000022014B1A6008BD340C0010D813010053
:1054700021090010DC0400100F0900101C050010A9
:105480006C030010E41301000E0900100A4B1B7896
:105490008BB910B50024094B1C70094B1C70FCF72C
:1054A000FFFFFF23074A1370074A1370074A14705F
:1054B000074A137010BD7047F4080010000900106F
:1054C000FE0800103D0000100E090010FF0800103B
:1054D0001C050010FF23114A1370114A1370114A62
:1054E0001370114A1370114A1370114A1370114A44
:1054F0001370002210490A6010490A6010490A70AE
:1055000010490B7010490A7010490B704FF0FF31B1
:105510000F4B19600F4B1A60704700BFC10000109D
:10552000BF0000100D090010BE000010C0000010E8
:10553000EE080010EF080010140900101809001000
:10554000FD080010BD0000100F0900101009001028
:1055500008090010F808001038B500282DD0284B95
:105560001B780BB1FCF79CFFFF23264A1370244ADB
:1055700013700022244B1A7006200121FCF756FFFD
:10558000FFF7A8FF214B1B788BB1022B05D000231E
:105590001F4A13701F4A136038BDFF221C4B1A703C
:1055A0001D4B1B6803F548731A4A136038BD00236E
:1055B000174A1370174A136038BD124B1B78F3B9A2
:1055C000FF240F4B1C7006200121FCF72FFFFDF775
:1055D00031FA0620FCF7D8FE0720FCF7D5FE0F486D
:1055E000FBF7EAF80546FDF72BFA284606210022CC
:1055F000F023FDF7CBF9FDF71DFA094B1C7038BD00
:1056000000090010F40800101C050010210C001007
:10561000FF0800101C0900106005001098B103007D
:105620003D0000100222034B1A70FF22024B1A7039
:10563000704700BF0F090010FE080010704700BF40
:10564000014B1878704700BF000900100B4B5B69D5
:1056500013F0807F0A4B5B7814BFA3F11E02A3F105
:105660001402642303FB02F3064A82FB0312DB17D6
:10567000C3EBE203044A1370704700BF20C0092047
:10568000DC0400101F85EB512209001008B50D4BFA
:105690005B6903F08073002B14BF37222D220A4B65
:1056A0005B780133DBB29A4202D3074A537004E0BD
:1056B000054B5A700548FEF72BFDFFF7C7FF024B5D
:1056C000587808BD20C00920DC040010F013010048
:1056D00008B50D4B5B6903F08073002B14BF1E22CD
:1056E00014220A4B5B78013BDBB29A4202D8074A8C
:1056F000537004E0054B5A700548FEF709FDFFF7AB
:10570000A5FF024B587808BD20C00920DC0400101A
:10571000F013010008B50C4B9B78012B02D0022B33
:105720000CD00EE0094B1B68094A12689A4202D954
:10573000FAF7A6FE08BDFAF7ABFE08BDFAF7A0FE21
:1057400008BDFAF7A5FE08BDDC04001060050010D6
:1057500028090010184B9B78012B15D013B1022B90
:105760001DD025E00122144B9A704FF4C872134BE0
:105770001A60134B1B6803F59C530833114A1360DE
:10578000FF22114B1A7013E002220B4B9A700C4B44
:105790001A680C4B1A60FF220B4B1A7008E00023AA
:1057A000054A9370064A1168064A1160064A13704A
:1057B000FF22014B1A707047DC040010240900100E
:1057C00060050010280900102C090010074B9B7879
:1057D000012B0AD14FF4C872054B1A60054B1B68A8
:1057E00003F59C530833044A13607047DC0400102F
:1057F00024090010600500102809001010B4031DD2
:105800000A1D046809688C420AD12C3053F8044BF5
:1058100052F8041B8C4206D18342F7D1002004E0E9
:105820004FF0FF3001E04FF0FF305DF8044B704760
:1058300030B40C4605460FCD0FC40FCD0FC495E80C
:10584000070084E8070030BC704700BF2DE9F04333
:1058500083B00346002001909C884FF6FF7084427D
:105860002CD1187810F0600F1AD192B1012904D010
:10587000022905D01A69009204E05A69009201E0F9
:105880009A6900920098B0F1FF3F40F04E8198680D
:105890004BE19868B0F1FF3F40F04781186944E15F
:1058A000012904D0022905D01B69009304E05B693B
:1058B000009301E09B690093009836E11B7803F0A8
:1058C0006003402B26D0012908D002290DD02C23BB
:1058D000974A03FB04231B6900930CE02C23944A92
:1058E00003FB04235B69009305E02C23904A03FB30
:1058F00004239B6900938F4B1B784BB1009BB3F142
:10590000FF3F05D12C238A4A03FB0424236900931B
:1059100000980AE1E4B242B12C23854A03FB042338
:105920001869B0F1FF3F40F000810F46804E2C25F2
:105930004FF6FF78A14605FB04F4335D03F06002E7
:10594000402A73D003F00F03012B01D0072B3ED167
:1059500005FB09639B68B3F1FF3F1BD0012F03D008
:10596000022F0CD00093DAE02C22714902FB0912BD
:105970005269B2F1FF3F08BF1A460092CFE02C22D5
:105980006B4902FB09129269B2F1FF3F08BF1A4648
:105990000092C4E0C2B9012F08D0022F0DD02C23F1
:1059A000634A03FB092213690093B4E02C23604A85
:1059B00003FB092253690093ADE02C235C4A03FBEF
:1059C000092293690093A6E0012F2FD02EE07AB927
:1059D00005FB09639A680092DB68B3F1FF3F25D0AD
:1059E00005FB096168460C316A46FBF7E5F81DE0E6
:1059F00005FB09639B88434518D1012F08D0022F6E
:105A00000DD02C234A4A03FB09221369009382E03C
:105A10002C23474A03FB0922536900937BE02C2285
:105A2000434B02FB09329369009374E005FB096262
:105A3000D36801990B4401931479214605FB04F3C3
:105A4000F35C03F00F03012B01D0072B21D12C2392
:105A5000374A03FB01239B68B3F1FF3F17D1012FA6
:105A600007D0022F0CD02C2303FB01210B690093DC
:105A700051E02C232E4A03FB01214B6900934AE09D
:105A80002C232B4A03FB01218B69009343E00093F5
:105A900045E0022B18D1012F08D0022F0DD02C2366
:105AA000234A03FB04210B69009334E02C23204A92
:105AB00003FB04214B6900932DE02C231C4A03FBBC
:105AC00004218B69009326E005FB0462928842451D
:105AD0007FF430AF05FB046292680092052B01D081
