:10000000583F001021020000330200008D860000DE
:1000100037020000390200003B0200001C2FFFEFF6
:100020000000000000000000000000003D02000091
:100030003F020000000000004102000043020000F7
:100040004502000047020000357D00005503010015
:10005000C14F0000555B0000695B00007D5B000044
:10006000915B000057020000590200005B02000093
:100070005D0200005F0200006102000063020000F8
:100080006502000067020000690200006B020000C8
:100090006D0200006F020000710200007302000098
:1000A0007502000077020000790200007B02000068
:1000B0007D0200007F020000810200008302000038
:0C00C00085020000870200008902000099
:1000CC00344935480A1A02D0072291438D463349E8
:1000DC0033480A1A06D00722914381F30988022279
:1000EC0082F314882F483049304A00F042F83048E7
:1000FC003049314A00F03DF830483149314A00F07E
:10010C0038F831483149324A00F033F83148324935
:10011C00324A00F02EF832483249334A00F029F8BE
:10012C0032483349334A00F024F83348334900222B
:10013C0000F02AF832483349002200F025F8324802
:10014C003249091A082902DB0022026041601F486B
:10015C001F49884205D00268043003B4904703BCA1
:10016C00F7E700208646EC4600200021284A9047FD
:10017C00FEE7884207D0521A05D0037801300B7085
:10018C000131013AF9D17047884202D00270013036
:10019C00FAE77047583F001058370010583F0010CE
:1001AC00583F001084F30100000000108C01001077
:1001BC009C0200009C020000FAA4010084F30100E0
:1001CC000000001000000010FCA40100FCA40100C1
:1001DC00FCA40100FCA40100FCA40100FCA401008F
:1001EC00FCA40100FCA4010081F3010010F5010046
:1001FC0058170010581700108C01001058170010D9
:10020C0058170010581700105817001058370010C6
:10021C00BD810000DFF868D01A4880471A481B4996
:10022C000160FFF74DBFFEE7FEE7FEE7FEE7FEE7E6
:10023C00FEE7FEE7FEE7FEE7FEE7FEE7FEE7FEE78A
:10024C00FEE7FEE7FEE7FEE7FEE7FEE7FEE7FEE77A
:10025C00FEE7FEE7FEE7FEE7FEE7FEE7FEE7FEE76A
:10026C00FEE7FEE7FEE7FEE7FEE7FEE7FEE7FEE75A
:10027C00FEE7FEE7FEE7FEE7FEE7FEE7FEE700002F
:10028C00007000109577000008ED00E00000000001
:10029C00036809680B4406498B4202D8136000209E
:1002AC0070470449194411604FF0FF30704700BF8C
:1002BC00FF830C24007CF3DB036809685B1A136072
:1002CC00002B01DB002070470249194411604FF0EC
:1002DC00FF307047005C260510B403684FF0000C2B
:1002EC001D4C1A465FFA8CF00CF1010C1B19F8D559
:1002FC0008704FF0000C1346A2F55B12A2F53A52AF
:10030C005FFA8CF00CF1010C002AF4DA48704FF013
:10031C00000C1A46A3F56A43603B5FFA8CF00CF1B3
:10032C00010C002BF5DA88704FF0000C13465FFAC5
:10033C008CF00CF1010CB2F57A72F7D5C870002272
:10034C001C465FFA82FC01320A3BF9D581F804C0E5
:10035C004C71881D10BC704700A4D9FA38B50268DE
:10036C00B2F1FF3F32D0204813461218FCD50022C0
:10037C001C46A3F55B13A3F53A53D0B20132002B04
:10038C00F6DA00F00BFA014600232546A4F56A4480
:10039C00603CD8B20133002CF7DA00F0FFF90146CB
:1003AC0000232C46D8B20133B5F57A75F9D500F097
:1003BC00F5F9014600232546D8B201330A3CFAD59B
:1003CC0000F0ECF9303500F8015B38BD2D230B70D3
:1003DC004B708B70CB700B714B718B71CB7101F1BE
:1003EC0009000B72F1E700BF00A4D9FA00680B6892
:1003FC00C01A03D00028B4BF0120022070470000AF
:10040C0003681944054B994202D8116000207047CB
:10041C00034B0B4413604FF0FF307047FF830C24E9
:10042C00007CF3DB00230A4A01469C46013380180A
:10043C00FAD55FFA8CFC0748A0FB013189094FF40F
:10044C007A7000FB01F1044800FB0C10704700BFF0
:10045C0000A4D9FAD34D6210005C26050022134982
:10046C000346944601324018FAD55FFA8CFC1048CA
:10047C0000FB0CFC00211A46A3F55B13A3F53A53C1
:10048C0008460131002BF6DAC0B20A4B03FB00CC54
:10049C000023A2F56A42603A18460133002AF8DAC2
:1004AC00C0B24EF6602303FB00C0704700A4D9FA1B
:1004BC00005C260580EE360070B50D4616460F4CD6
:1004CC00082154F8042903464FF0000C5FFA8CFE07
:1004DC0018460CF1010C9B1AF8D5B1429CBF0EF1D9
:1004EC00300E05F801EB013911F0FF01E9D100F1F3
:1004FC003003284600F8013B70BD00BF30A5010059
:10050C002DE9F0470F46924696460C460025184EAC
:10051C004FF004094FF001080BE084F800900D46F1
:10052C0001E03031217001340EF1FF3E1EF0FF0E60
:10053C0013D056F82E2003464FF0000C61460CF1F8
:10054C00010C18469B1AF9D5002DEAD10029E4D0EC
:10055C0001F1300323704546E5E70AF1FF32D2B2D0
:10056C00B91800F130034B700232B818BDE8F087AF
:10057C0010A50100F0B50E46154602682946344612
:10058C000E4F57F8210013464FF0000C5FFA8CFE0B
:10059C001A460CF1010C1B1AF8D50EF1300E04F8AA
:1005AC0001EB013911F0FF01EBD16B1EDBB2F1183D
:1005BC0030324A700233F018F0BD00BF10A50100B4
:1005CC00F0B50E4615460132114B53F822308342DA
:1005DC00D8BF03F1FF30294634460D4F57F8212080
:1005EC0003464FF0000C5FFA8CFE18460CF1010C20
:1005FC009B1AF8D504F801EB013911F0FF01EDD18C
:10060C006B1EDBB2F21850700233F018F0BD00BF55
:10061C0010A501000378A3F130024378303B64212C
:10062C0001FB03F34FF47A7101FB02338278303A09
:10063C0002EB820203EB4203C07830381844704757
:10064C000378A3F130024378303B03EB83035B0068
:10065C00642101FB0233807830381844704783B230
:10066C00A0F1640212B2002A23DB00200130C0B2D8
:10067C0093B29446A3F1640212B2002AF6DA0A3B52
:10068C001BB2002B13DB00220132D2B29C460A3B78
:10069C001BB2002BF8DA10B1303001F8010B3032FC
:1006AC000A700CF1300C81F801C0881C70470022D4
:1006BC00F1E70A3B1BB2002BA8BF0020E3DA0FFACC
:1006CC0080FC0022EBE7037803EB830340781038BF
:1006DC0000EB4300C0B2704700235FFA83FCC2B248
:1006EC00A2F10A0040B201330028F6DA0CF1300C0A
:1006FC0081F800C030324A70881C7047024603787B
:10070C00A3F13001C9B209290ED803EB83035B00B6
:10071C002033D8B25278A2F10A03DBB2252B02D9CE
:10072C00303A1044C0B270470020F3E783B2002285
:10073C00D0B29C46A3F51C53103B0132002BF7DAC8
:10074C00303008700023D8B262460133BCF57A7C95
:10075C00F9D5303048704FF0000C5FFA8CF013462E
:10076C000CF1010C643AF8D5303088700022D0B20C
:10077C009C4601320A3BFAD53030C8706346013BC7
:10078C00FDD52CEAEC7C0CF1300C81F804C0481D32
:10079C00704708B50088FFF7C9FF08BD632805D965
:1007AC002023084600F8023B4B70704700B500232D
:1007BC005FFA83FE8446A0F10A02D0B2013312F034
:1007CC00800FF5D00EF1300E084600F802EB0CF15C
:1007DC00300C81F801C05DF804FB632805D90423B3
:1007EC00084600F8023B4B70704710B40023DCB293
:1007FC008446A0F10A02D0B2013312F0800FF6D079
:10080C004CB1481C3034E4B20C700CF1300C00F8D4
:10081C0001CB10BC7047481C0424F5E700225FFA9A
:10082C0082FC03466438013210F4807FF7D00CF15F
:10083C00300C81F800C000225FFA82FC0A3B0132C6
:10084C0013F0800FF8D00CF1300C81F801C03A3362
:10085C008B700846002300F8033F7047044B0209D5
:10086C009A5C0A7000F00F001B5C4B70881C704780
:10087C0034A50100037813F0400F00F1010014BF00
:10088C00373B303BDBB21B01DBB2007810F0400F82
:10089C00184414BF3738303800F0FF00704738B5B3
:1008AC0004460D46FFF7E6FF2870A01CFFF7E2FF99
:1008BC006870201D38BD38B504460D46FFF7DAFFC9
:1008CC002870A01CFFF7D6FF6870201DFFF7D2FF21
:1008DC00A870A01DFFF7CEFFE87004F1080038BD2A
:1008EC00044B02099A5C0A7000F00F001B5C4B7001
:1008FC00881C704700A5010010B580B200231A4671
:10090C000133DBB28446A0F51C5010380028F6DA0F
:10091C00012B01F101040FBF20223032D2B2FF2390
:10092C000A70002211460132D2B26046BCF57A7CC4
:10093C00F8D5934204F1010E0FBF20213031C9B21A
:10094C00FF22217000239C460133DBB20146643840
:10095C00F9D59A420EF101040FBF4FF0200C0CF1A7
:10096C00300C5FFA8CFCFF238EF800C000229646F8
:10097C000132D2B28C460A39F9D5934204F1010006
:10098C000EBF4FF0200E0EF1300E5FFA8EFE84F883
:10099C0000E06346013BFDD52CEAEC7C0CF1300CFD
:1009AC0000F801CB10BD08B5FFF7A6FF08BD9446B3
:1009BC0052B1844410F8012B11F8013B9A4205D135
:1009CC006045F7D1FF207047FF207047002070472B
:1009DC0000F1FF3C0B46013AD2B211441CF8010F56
:1009EC0018701A46013328B118468A42F6D10023F2
:1009FC000370FF207047024603783BB1084600F8AD
:100A0C00013B12F8013F002BF9D1704708467047A3
:100A1C002DE9F04F7A4B03EBC00E13F83000794BF5
:100A2C001F78042F16D8DFE807F003186A2EA400ED
:100A3C001378013303441370441C0C440A461EF80B
:100A4C00013F5B0802F8013BA242F8D1023001449D
:100A5C0000232370481EBDE8F08F137803EB40038E
:100A6C0013708B1C0C1D04EB40041EF8012F520854
:100A7C0003F8022C03F8012C0233A342F5D1013008
:100A8C0001EB4001E6E7431C147804EB43031370BD
:100A9C008E1C01F1040808EB40084FF001094FF0DF
:100AAC00000C1EF8015F6D083A4604244B46E246E2
:100ABC002B4218BF4AEA020A5B00DBB29200D2B2A8
:100ACC00013CF5D1B34606F802AC06F801AC3A4647
:100ADC000424E2462B4218BF4AEA020A5B00DBB24E
:100AEC009200D2B2013CF5D18BF8EEA08BF8EFA0BE
:100AFC0002364645D5D1013001EB4001AAE7137807
:100B0C000133034413704E1E01EB00094FF0030C2C
:100B1C004FF0010800271EF8015F6D08042462469F
:100B2C004346BA462B4218BF4AEA020A5B00DBB2C4
:100B3C009200D2B2013CF5D10136B34686F800A042
:100B4C0004246246BA462B4218BF4AEA020A5B00EA
:100B5C00DBB29200D2B2013CF5D18BF8F0A04E453D
:100B6C00D9D10B180130084400225A7083F8F120B7
:100B7C0071E7431C147804EB43031370CD1C01F193
:100B8C00060800EB4003984403274FF001090026A8
:100B9C001EF8014F64084FF0040C3A464B46B2461F
:100BAC00234218BF4AEA020A5B00DBB29200D2B2BF
:100BBC00BCF1010CF4D1AB4605F803AC05F802AC62
:100BCC0005F801AC4FF0040C3A46B246234218BF6C
:100BDC004AEA020A5B00DBB29200D2B2BCF1010C11
:100BEC00F4D18BF8EDA08BF8EEA08BF8EFA00335C9
:100BFC004545CDD1013000EB400001442AE700BF50
:100C0C0000EA03009F0300102DE9F84384461646C2
:100C1C00027822B165461CF8012F002AFAD15A1E1F
:100C2C00D2B253B31346013BDBB2FF2BFBD1D24301
:100C3C000CEB02041CF80200F8B100274FF001087D
:100C4C004FF0200907E03246FFF7E2FE0146474627
:100C5C0014F8010F88B1A542F5D0002FF3D130283C
:100C6C0005D03246FFF7D4FE01464746F0E7324640
:100C7C004846FFF7CDFE0146EAE70846BDE8F88393
:100C8C002DE9F84F0C46AE4901EBC00711F8305076
:100C9C00AC490E78042E19D8DFE816F005001B00BD
:100CAC00BD0032005A01137801332B4413703846BF
:100CBC006A1C2244214610F8013F5B0801F8013BF5
:100CCC009142F8D102352C4400231370601EBDE80C
:100CDC00F88F137803EB45031370A31C3846221DC1
:100CEC0002EB450210F8011F490803F8021C03F837
:100CFC00011C02339342F5D1013504EB4504E5E7C1
:100D0C006B1C117801EB4303137009F0ABFE8146A9
:100D1C0000283DD104F102083846221D02EB4502A1
:100D2C004FF0010A10F801EF4FEA5E0E31464F46C4
:100D3C004FF0040C534613EA0E0F1CBF0F43FFB2C7
:100D4C005B00DBB28900C9B2BCF1010CF3D1C34624
:100D5C0008F8027C08F8017C3146CC46042713EADB
:100D6C000E0F1CBF4CEA010C5FFA8CFC5B00DBB273
:100D7C008900C9B2013FF2D18BF8EEC08BF8EFC0FD
:100D8C0008F102089045CDD1013504EB45049DE7EF
:100D9C00384604F1F20C04F1F40909EB45094FF063
:100DAC00010A4FF00008DFF8A0E110F8017F7F087E
:100DBC00314604225346C3463B4218BF4BEA010B53
:100DCC005B00DBB28900C9B2013AF5D1ACF1F20299
:100DDC0072453CBF0CF8F2BC0CF8F1BC3146042255
:100DEC00C3463B4218BF4BEA010B5B00DBB28900E8
:100DFC00C9B2013AF5D1ACF1020373453CBF0CF812
:100E0C0002BC0CF801BC0CF1020CCC45CDD1013567
:100E1C0004EB45045AE7117801312944C9B2F02991
:100E2C003DD8117009F01EFE8646002844D1384684
:100E3C0004F1FF3C04EB050A4FF003084FF00109E5
:100E4C0010F8016F76087246042741464B46334230
:100E5C001CBF0A43D2B25B00DBB28900C9B2013FAE
:100E6C00F5D10CF1010CE3468CF8002077460422F6
:100E7C00414633421CBF0F43FFB25B00DBB289001B
:100E8C00C9B2013AF5D18BF8F070D445D8D16319B9
:100E9C00681C204400225A7083F8F12017E70021C7
:100EAC0011700233DBB2C3EB03139DF8284004EB43
:100EBC000313264C1C44B5E73A4605F10109A1443D
:100ECC0020464FF003084FF0010A4FF0000EDFF8F8
:100EDC0078C012F8017F7F08042641465346F3463A
:100EEC003B4218BF4BEA010B5B00DBB28900C9B275
:100EFC00013EF5D1604538BF80F800B0042641466C
:100F0C00F3463B4218BF4BEA010B5B00DBB2890096
:100F1C00C9B2013EF5D100F1F001614538BF80F84E
:100F2C00F0B001308145D4D1F1356219064B9842AD
:100F3C00BFF4CDAE002302F8F03C6355C7E600BF0A
:100F4C0000EA03009F030010A0C5072000C0072083
:100F5C006B1C117801EB4303137004F1030E38463C
:100F6C0004F1060805EB4503984403274FF00109EB
:100F7C00002610F801CF4FEA5C0C04213A464B4690
:100F8C00B24613EA0C0F18BF4AEA020A5B00DBB246
:100F9C009200D2B20139F4D1F3460EF803AC0EF83C
:100FAC0002AC0EF801AC04213A46B24613EA0C0F1F
:100FBC0018BF4AEA020A5B00DBB29200D2B20139D6
:100FCC00F4D18BF8EDA08BF8EEA08BF8EFA00EF11E
:100FDC00030EC645CDD1013505EB45052C4475E610
:100FEC002DE9F04F87B080460F4616460568FF295D
:100FFC001CBFC74B1970FF2A18BF8DF81720C44BA4
:10100C001C78C4EB04149DF8170000EB0414C148C1
:10101C000444DFF804B39A4695E1C04B02221A70DF
:10102C004D468CE1BD4B01221A704D4687E1BB4BFE
:10103C0003221A704D4682E1B84B00221A704D46BD
:10104C007DE100963B460DF1170221462520FFF766
:10105C0017FE04464D4672E1D8F804308DF817306F
:10106C009AF80000C0EB0010DBB203EB0010A94BA8
:10107C00C4184D4608F1040861E104F1F002A548DA
:10108C00131AA74981FB03511944DB17C3EBE11376
:10109C00DBB2C3EB031300EB03139C4280F004821E
:1010AC0000209E4D04F8010B2978022988BF02F814
:1010BC00010BA342F6D14D461C4640E19AF8003094
:1010CC00062B00F2F3815A1C8AF80020934A1278FE
:1010DC00012A84BF02338AF800309AF80030C3EB3F
:1010EC00031306EB03148B4B1C448DF817604D4611
:1010FC0025E108F104030393D8F80420CBF8002071
:10110C0005F10309DFF81C82AB78303B88F800301E
:10111C00854D29461078FFF781FB98F800300DF1CA
:10112C00170221462846FFF76FFD04464D46DDF8B1
:10113C000C8004E108F104030393D8F80400CBF805
:10114C00000005F10309DFF8DC81AB78303B88F84F
:10115C000030754D2946FFF71CFB0023037098F8EF
:10116C0000300DF1170221462846FFF74DFD0446CD
:10117C004D46DDF80C80E2E008F104030393D8F847
:10118C000400CBF8000005F10308AA78303AD2B27B
:10119C00DFF8909189F80020634D2946FFF7EAF9B2
:1011AC000023037099F800300DF1170221462846F0
:1011BC00FFF72AFD04464546DDF80C80BFE008F138
:1011CC0004030393D8F80430CBF800309DF81720B3
:1011DC009AF800105846FFF703FF8DF817009AF89D
:1011EC000030C3EB031300EB03104A4BC4184D46FD
:1011FC00DDF80C80A3E008F10403039305F1030967
:10120C00AB78732B03D04D46DDF80C8097E0D8F803
:10121C0004301B68CBF800309DF817209AF80010AA
:10122C005846FFF7DDFE8DF817009AF80030C3EB37
:10123C00031300EB0310374BC4184D46DDF80C803C
:10124C007DE008F104030393D8F804301868CBF858
:10125C00000006F05FFF9DF817209AF80010FFF7CA
:10126C00BFFE8DF817009AF80030C3EB031300EBA8
:10127C000310284BC4184D46DDF80C805FE008F1D4
:10128C0004030393D8F80400CBF8000006F042FFE7
:10129C009DF817209AF80010FFF7A2FE8DF81700A2
:1012AC009AF80030C3EB031300EB0310194BC4186E
:1012BC004D46DDF80C8042E000963B460DF11702DE
:1012CC0021460F20FFF7DCFC04464D4637E0009624
:1012DC003B460DF1170221460D20FFF7D1FC0446C9
:1012EC004D462CE000963B460DF11702214614208A
:1012FC00FFF7C6FC04464D4621E000963B460DF137
:10130C00170221461620FFF7BBFC04464D4616E09B
:10131C00B903001000C00720A40100109F030010A7
:10132C0089888888A00300109801001000963B461D
:10133C000DF117022146FFF7A3FC044601352B786B
:10134C00002B00F0B58028782528EFD105F1020993
:10135C006B78253B502B00F2A58001A252F823F0AC
:10136C004F100000B1140000B1140000B1140000C3
:10137C00B1140000B1140000B1140000B11400004D
:10138C00B1140000B1140000B1140000B11400003D
:10139C00B1140000B1140000B1140000B11400002D
:1013AC00B1140000B1140000B1140000B11400001D
:1013BC00B1140000B1140000B1140000B11400000D
:1013CC00B1140000B1140000B1140000B1140000FD
:1013DC00B114000031100000B11400003B100000EB
:1013EC00B1140000B1140000B1140000271000006B
:1013FC00B1140000B1140000B1140000B1140000CD
:10140C00B114000045100000B1140000B11400002C
:10141C00B1140000B1140000B1140000B1140000AC
:10142C00B1140000DB120000B1140000C512000062
:10143C00B1140000B1140000B1140000B11400008C
:10144C00B114000003120000B1140000B11400002C
:10145C00B1140000FF1000008710000007130000FB
:10146C00B1140000B1140000B1140000B11400005C
:10147C0041110000B1140000B114000085110000EE
:10148C008B120000B1140000B11400004F120000C8
:10149C00B1140000C9100000CB1100006510000051
:1014AC00F11200004D464AE74D4648E74D4646E7E7
:1014BC009DF8170007B0BDE8F08F00BF2DE9F04391
:1014CC0083B004460E461546FF291CBF7A4B197093
:1014DC00FF2A1CBF794B1A70774B1978C1EB01119D
:1014EC00764B187800EB0111754801441F46DFF864
:1014FC00C891804607E0734B02221A70023423789D
:10150C00002B00F0D4802078252840F0C88060782B
:10151C00252879D0A0F14203DBB2302BEED842382B
:10152C003028EBD801A353F820F000BF05160000BB
:10153C0009150000FD150000091500000915000033
:10154C00091500000315000009150000091500001D
:10155C000915000009150000091500000D16000002
:10156C0009150000091500000915000009150000F7
:10157C000915000009150000091500009B16000054
:10158C00091500008B160000091500000915000054
:10159C0009150000091500000915000009150000C7
:1015AC0009150000091500000915000009150000B7
:1015BC00251600000915000009150000091500008A
:1015CC000915000009150000091500000915000097
:1015DC000915000009150000091500000915000087
:1015EC000915000009150000091500006B16000014
:1015FC00344B03221A7081E7324B01221A707DE7BB
:10160C00304B00221A7079E7009533463A46252074
:10161C00FFF736FB014671E701F1F002A2EB08037C
:10162C00294880FB03C01844DB17C3EBE013DBB283
:10163C00C3EB031308EB03139942BFF45FAF4FF0F6
:10164C00000CDFF880E001F801CB9EF800000128C7
:10165C0088BF02F801CB8B42F5D119464EE799F8B9
:10166C000030062B3FF64AAF0133DBB289F800306D
:10167C00C3EB031305EB031141443D703EE70095AA
:10168C0033463A460F20FFF7FBFA014636E7009542
:10169C0033463A460D20FFF7F3FA01462EE7009544
:1016AC0033463A46FFF7ECFA0146013427E7034B81
:1016BC00187803B0BDE8F083B9030010B80300102C
:1016CC0000C007209F0300108988888870B51A4CC9
:1016DC0004EBC00CC1EB011102EB011E174D0EEB1C
:1016EC0005060CF1010314F83010022905D003296A
:1016FC001AD00632D0B2344605E0741C00200EF825
:10170C0005000432D0B2621E01395FFA81FE0EF17F
:10171C0002018C4413F8011B02F8011F6345F9D137
:10172C0074440023637070BD00200EF80500B41CD7
:10173C0070700632D0B2E6E700EA030000C0072062
:10174C002DE9F04F0346FF2A1CBF79480270FF2990
:10175C001CBF78480170784800EBC30C754991F8B0
:10176C0000E0CEEB0E1E7249097801EB0E1E734998
:10177C008E4410F83370724B1E78042E00F2D58014
:10178C00DFE806F0031360279400501C3844C0B205
:10179C00013777441CF8013F5B080EF8013BBE454E
:1017AC00F8D100233B70BDE8F08F02EB4700C0B2CC
:1017BC000EF102030EF1040E0EEB47071CF8012F7D
:1017CC00520803F8022C03F8012C0233BB42F5D16A
:1017DC00E9E7781C02EB4000C0B20EF102050EF1F5
:1017EC00040E0EEB47074FF0010E4FF000081CF8EB
:1017FC00014F6408324604217346C146234218BF88
:10180C0049EA02095B00DBB29200D2B20139F5D190
:10181C00AA4605F8029C05F8019C32460421C146F3
:10182C00234218BF49EA02095B00DBB29200D2B234
:10183C000139F5D18AF8EE908AF8EF900235BD4265
:10184C00D5D1B0E7501C3844C0B20EF1FF360EEBC8
:10185C00070B4FF003094FF000081CF8014F640808
:10186C0004214A4601234546234218BF15435B0019
:10187C00DBB29200D2B20139F6D10136B2463570E4
:10188C0004214A464546234218BF15435B00DBB290
:10189C009200D2B20139F6D18AF8F0505E45DCD113
:1018AC00774400237B7087F8F1307CE7781C02EBDF
:1018BC004000C0B20EF103050EF1060E07EB470710
:1018CC0077444FF0030E4FF0010800261CF8014F2F
:1018DC006408042172464346B146234218BF49EAC4
:1018EC0002095B00DBB29200D2B20139F5D1AA46F3
:1018FC0005F8039C05F8029C05F8019C042172462E
:10190C00B146234218BF49EA02095B00DBB29200E0
:10191C00D2B20139F5D18AF8ED908AF8EE908AF8B6
:10192C00EF900335BD42D1D13DE710463BE700BFF8
:10193C00B8030010B903001000EA030000C0072030
:10194C009F030010164B1B78012B1CD9C0EB001306
:10195C00144A02EB031303F1F001002203F8012BEC
:10196C009942FBD106281AD8431CDBB2C3EB0312F5
:10197C000C4B03EB021303F1F001002203F8012BD3
:10198C009942FBD17047C0EB0010064B03EB0013E0
:10199C0003F1F001002203F8012B9942FBD17047AF
:1019AC009F03001000C0072010B50024E0B2FFF721
:1019BC00C9FF0134082CF9D110BD10B50024E0B2D8
:1019CC00FFF7C0FF0134082CF9D110BD014B18787A
:1019DC00704700BF00000010014B1878704700BF23
:1019EC009D030010014B00221A7070479D030010DC
:1019FC001A4B1970D1B9072814D8C0EB0012184B28
:101A0C0003EB021217494B1E01F1F00C12F8011BEB
:101A1C0003F8011F6345F9D1134B1870134B4FF0AA
:101A2C00FF321A60124B00221A7070470628F9D840
:101A3C00C0EB00120A4B03EB02120A494B1E01F5D4
:101A4C00F07C12F8011B03F8011F9C45F9D1064BE1
:101A5C001870064B4FF0FF321A60E3E79E0300103C
:101A6C0000C00720BC01001000000010B8010010DD
:101A7C009D030010194B1B68EBB1184B00221A6028
:101A8C00174B1A78072A16D8164B1B78A3B9C2EB3A
:101A9C000213154A02EB0312144B03F1F10013F875
:101AAC00011B02F8011F8342F9D10D4BFF221A7062
:101ABC000F4B01221A707047C2EB02130A4A02EB59
:101ACC0003120A4B03F2E11013F8011B02F8011F79
:101ADC008342F9D1024BFF221A70E9E7B8010010DA
:101AEC00000000109E030010FFBF0720BC01001077
:101AFC009D030010C0EB001001EB0012074B1A44C1
:101B0C00C1F1F001002907DD0023184602F8010B92
:101B1C000133DBB28B42F9DB704700BF00C00720FA
:101B2C00C0EB001001EB001024490144244B1B783E
:101B3C00022B23D0032B34D1002A16DD8B1C501E14
:101B4C0020F0010C0CF1040C8C44002203F8022C44
:101B5C0083F8EE2003F8012C83F8EF200233634561
:101B6C00F4D120F001020232114400230B7081F8F1
:101B7C00F03081F8E13181F8D1327047002A0BDD69
:101B8C004B1E02F1FF3C8C44002003F8010F83F83C
:101B9C00F0006345F9D1114400230B7081F8F0304B
:101BAC007047002A08DD0A44002301F8013B8A42F1
:101BBC00FBD10023137070470A46FAE700C00720D8
:101BCC009F03001010B584B09DF818409DF81CC000
:101BDC00BCF1010F0DD0BCF1020F14BF4FF0040C7F
:101BEC004FF02D0C44B90478302C3AD08DF800C04D
:101BFC0004E04FF02B0CF5E78DF800C010F8014B0A
:101C0C008DF8014010F8014B8DF802401C248DF822
:101C1C00034010F8014B8DF8044010F8014B8DF87F
:101C2C0005401C248DF8064010F8014B8DF8074038
:101C3C0090F800C08DF808C0002B47D02E248DF8EA
:101C4C00094044788DF80A40012B48D084788DF8EF
:101C5C000B40022B46D0C3788DF80C300DF10D00E3
:101C6C0036E004248DF800404478302C03D0013049
:101C7C008DF801C0C6E704248DF8014003248DF8CB
:101C8C0002408478302C03D002308DF803C0C0E7BA
:101C9C0004248DF80340C478302C03D003308DF825
:101CAC0004C0BAE704248DF8044003248DF80540E1
:101CBC000479302C03D004308DF806C0B4E704242A
:101CCC008DF8064005308DF807C0B1E70DF109001D
:101CDC00002303706846FFF7F1FB04B010BD0DF153
:101CEC000B00F5E703A8F3E76BBB0378302B2AD185
:101CFC0004230B704378302B03D001F1010C431CEF
:101D0C0027E004234B708B708378302B02D0831C1C
:101D1C00033126E00423CB70C378302B02D004317E
:101D2C00C31C22E004230B7103234B710379302B6A
:101D3C0003D0031D01F1060C1EE001F1070C042376
:101D4C008B71431D1CE003468C4613F8011B0CF8E9
:101D5C00011B13F8010B614601F8020B1C208CF8D7
:101D6C00010013F8010B01F8010B13F8010B8C4661
:101D7C000CF8020B1C20487013F8011B0CF8011B0B
:101D8C0019788CF8001012B90CF1010070472E2153
:101D9C008CF8011059788CF80210012A0CD0997823
:101DAC008CF80310022A0FBF0CF104000CF1050093
:101DBC00DB788CF8043070470CF10300704700009E
:101DCC0070B50C4616461A46204D9DF81030294623
:101DDC00FFF78AFF00230370324621462878FFF76D
:101DEC00AFFC024621466878FFF7AAFC421ED2B22D
:101DFC002146A878FFF7A4FC421ED2B22146E8780F
:101E0C00FFF79EFC024621462879FFF799FC421EFB
:101E1C00D2B221466879FFF793FC421ED2B221461A
:101E2C00A879FFF78DFC02462146E879FFF788FC7C
:101E3C000246287A40B108352146FFF781FC02465C
:101E4C0015F8010F0028F7D1104670BDA80100103D
:101E5C0070B50C4615461A46064E9DF810303146A4
:101E6C00FFF742FF002303702A4621463046FFF756
:101E7C0025FB70BDA801001038B50C46154606F0C0
:101E8C0049F92A462146FFF7ABF838BD10B4024693
:101E9C000E4B93F800C00CF0FD0C00200C4C0DE028
:101EAC0014F833100B18DBB2BCF1010F04BF5B1834
:101EBC00DBB20133D8B20132137823B11378252B5E
:101ECC00EED10232F8E710BC704700BF9F03001040
:101EDC0000EA0300F8B506460F4615469C1A006842
:101EEC00FFF7D4FF231A03EBD37305EB6303DAB2CA
:101EFC00AA4238BF2A4639463046FFF771F8F8BD7A
:101F0C00F8B50F461646044610F801CBBCF1200F6D
:101F1C00F9D0BCF1040FF6D09D1B2046FFF7B6FF9D
:101F2C00281A00EBD07006EB6000C2B2394620468E
:101F3C00FFF7C4FAF8BDF8B506460F4614461D4621
:101F4C009A1A21463846FFF7EBFD3046FFF79EFF05
:101F5C002D1AEAB2944238BF14462246394630460E
:101F6C00FFF7ACFA2046F8BD014B00221A707047FF
:101F7C009F030010014B01221A7070479F03001041
:101F8C00014B03221A7070479F030010014B022271
:101F9C001A7070479F0300102DE9F04FFF2A1CBFE9
:101FAC00904B1A70FF291CBF8F4B19708F4901EB96
:101FBC00C00E8D4B1C78C4EB04148A4B1B7803EBBE
:101FCC0004148B4B1C440EF1010311F83060894949
:101FDC000F78042F00F20381DFE807F003207B3732
:101FEC00C400501C3044C0B2621C0EF1020EB64448
:101FFC00814D03E001330132734507D0511EA942D4
:10200C00F8D21978490802F8011CF3E70136A21935
:10201C00794B9A425BD80023A35558E002EB46005B
:10202C00C0B2A21C043404EB4606734C03E001332B
:10203C000232B2424BD0911EA142F8D21978490813
:10204C0002F8021C02F8011CF1E7701C02EB4000C4
:10205C00C0B204F1F205F43404EB46064FF001086B
:10206C004FF0000C644C1EF8011F49083A464FF023
:10207C0004094346E2460B4218BF4AEA020A5B00D7
:10208C00DBB29200D2B2B9F10109F4D1A5F1F2029E
:10209C00A2423CBF05F8F2AC05F8F1AC3A464FF061
:1020AC000409E2460B4218BF4AEA020A5B00DBB2A3
:1020BC009200D2B2B9F10109F4D1AB1EA3423CBFDC
:1020CC0005F802AC05F801AC0235B542CBD1BDE840
:1020DC00F08F501C3044C0B204F1F10504F1F20A47
:1020EC00B2444FF003094FF00008434F1EF801CFE4
:1020FC004FEA5C0C04214A460123C34613EA0C0F39
:10210C0018BF4BEA020B5B00DBB29200D2B2013972
:10211C00F4D1A5F1F102BA4298BF05F8F1BC042143
:10212C004A46C34613EA0C0F18BF4BEA020B5B007E
:10213C00DBB29200D2B20139F4D16B1EBB4238BF74
:10214C0005F801BC01355545D0D106F1F103E11874
:10215C0001362644284A9642B9D2002201F8F02CC6
:10216C00E254B4E7701C02EB4000C0B2E71C06342A
:10217C0006EB460634444FF0030C4FF001080026E2
:10218C001EF8015F6D08042162464346B1462B429E
:10219C0018BF49EA02095B00DBB29200D2B20139E6
:1021AC00F5D1BA4607F8039C07F8029C07F8019C86
:1021BC0004216246B1462B4218BF49EA02095B0072
:1021CC00DBB29200D2B20139F5D18AF8ED908AF8DF
:1021DC00EE908AF8EF900337A742D1D177E71046FB
:1021EC0075E700BFB8030010B903001000EA030044
:1021FC0000C007209F030010A0C5072070B52F2832
:10220C0084BF3038C0B2BBB3C0EBC000C0EBC00061
:10221C001D4B00EB030CC1EB011102EB01111B4830
:10222C000844634613F8015B6C1EE4B20DB3411E07
:10223C00A61C664413F801EB01F801EF9E42F9D19C
:10224C000CF1110300F1EF0104F11206664413F8CE
:10225C0001EB01F801EFB342F9D10CF1210300F2CB
:10226C00DF112234A44413F8010B01F8010F63456C
:10227C00F9D12A44D0B270BDC0EBC000C0EBC00095
:10228C00034B00EB030CC6E7A4F5030000C00720CA
:10229C0000F2030070B52F2884BF3038C0B2002B79
:1022AC003CD0C0EBC000C0EBC000304B00EB030EC9
:1022BC00C1EB011102EB01112D4E0E44734613F8C4
:1022CC00014B651EEDB28CB3711E05F1020CF4448A
:1022DC0013F8010B01F8010F6345F9D106F1F00178
:1022EC00244B994227D2B4B10EF1110306F1EF0140
:1022FC0005F1120CF44413F8010B01F8010F9C4585
:10230C00F9D106F5F0711B4B994220D32346013BC2
:10231C00DBB2FF2BFBD12244D0B270BDC0EBC000AE
:10232C00C0EBC000144B00EB030EC1E706F1F0014B
:10233C00104B9942EFD32346013BDBB2FF2BFBD171
:10234C0006F5F0710B4B9942E0D2002CE3D00EF164
:10235C00210306F2DF1105F12200704413F8016B22
:10236C0001F8016F9842F9D1D5E700BFA4F503003D
:10237C0000C00720A0C5072000F203002DE9F041A2
:10238C0004460E4615461F469DF8183013B90378BF
:10239C00302B4DD0A04600232A46314618F8010BAD
:1023AC00FFF72CFF05F110020023D2B2314618F8CA
:1023BC00010BFFF723FF05F120020023D2B23146B7
:1023CC000A20FFF71BFF05F12A020023D2B2314687
:1023DC0018F8010BFFF712FF05F13A020023D2B2F5
:1023EC00314618F8010BFFF709FF05F14A020023EB
:1023FC00D2B231460A20FFF701FF05F15402002347
:10240C00D2B2314618F8010BFFF7F8FE05F1640261
:10241C000023D2B2314698F80000FFF7EFFE7B1E86
:10242C00DBB2022B52D93D4B00221A60BDE8F08181
:10243C0000230F20FFF7E2FE6378302B02D004F16B
:10244C000108AFE705F110020023D2B231460F208C
:10245C00FFF7D4FE05F120020023D2B231460F2043
:10246C00FFF7CCFEA378302B02D004F10208AAE7C8
:10247C0005F12A020023D2B231460F20FFF7BEFE2F
:10248C00E378302B02D004F10308A5E705F13A02FA
:10249C000023D2B231460F20FFF7B0FE04F104083E
:1024AC0005F14A020023D2B231460F20FFF7A6FEF7
:1024BC002379302BA1D105F154020023D2B231463D
:1024CC000F20FFF79BFE04F105089FE705F174024E
:1024DC000023D2B231460B20FFF790FE05F17E02AD
:1024EC000023D2B2314698F80100FFF787FE012F86
:1024FC0099D0A5F172020023D2B2314698F80200AD
:10250C00FFF77CFE022F8ED0A5F162020023D2B21F
:10251C00314698F80300FFF771FE84E7AC03001016
:10252C0038B505460C4601F120020023D2B2014613
:10253C000E20FFF763FE04F14A020023D2B22946B3
:10254C000E20FFF75BFE04F174020023D2B2294681
:10255C000E20FFF753FE38BD08B5054A136801334A
:10256C001360B3F5FA7F00D808BDFFF7D9FFFBE77E
:10257C00AC03001010B50A4C4FF0000C84F800C0EE
:10258C00084C217008490A70084A13709DF80820FD
:10259C00074B1A700068FDF745FF064B186010BD1D
:1025AC00A1030010AA030010A8030010A903001037
:1025BC00AB030010A403001030B583B004460068D0
:1025CC00194B1B68984208D8184B1978184B187877
:1025DC00FFF7C2FF002003B030BDFDF723FF124A06
:1025EC0010604FF47A711046FDF70AFF114D294621
:1025FC002046FDF7B3FE104B1B7800930F4B1B7856
:10260C000A4A12780A4909782846FFF7B7FE0C4B9C
:10261C0001221A7008F026FA08B9FF20DBE708F04F
:10262C0027FAFF20D7E700BFA4030010A80300106F
:10263C00AA0300108C010010AB030010A9030010BA
:10264C007000001070B5012B4FF04D0C0CBF224BDD
:10265C00224B0CFB003C604610F8014BC1EB011304
:10266C0002EB03131E490B449CB3591E651EEDB2BD
:10267C00AE1C664410F801EB01F801EF8642F9D16B
:10268C000CF1140103F1F000EF3305F1150666446B
:10269C0011F801EB03F801EFB142F9D10CF127036A
:1026AC0000F1F00E00F1EF0105F12806664413F875
:1026BC00010B01F8010FB342F9D10CF13A030EF101
:1026CC00EF013B35AC4413F8010B01F8010F9C45AD
:1026DC00F9D12244D0B270BD48A5010068AA01000E
:1026EC0000C0072070B5012B4FF04D0C0CBF2D4BCB
:1026FC002D4B0CFB003C604610F8014BC1EB011359
:10270C0002EB031329490B44002C48D0591E651EBB
:10271C00EDB2AE1C664410F801EB01F801EFB042CB
:10272C00F9D10CF11401C4F1F00E03F1F006EF3302
:10273C001535654411F8010B03F8010F8D42F9D1E1
:10274C00F0361B4B9E421BD20CF12701701E0B194D
:10275C0011F8015B00F8015F9942F9D13319734408
:10276C0013498B4216D20CF13A0CC4B1013B0CEB61
:10277C0004001CF8011B03F8011F8445F9D10EE07D
:10278C002346013B13F0FF03FBD1631EDBB2013385
:10279C003344E4E72346013B13F0FF03FBD122440F
:1027AC00D0B270BD48A5010068AA010000C0072086
:1027BC00A0C507202DE9F04F0446C1EB011102EB37
:1027CC000111534B194490F800E0524B1F78022F23
:1027DC0027D0032F5FD0012F0FD0034601390134CE
:1027EC000EF1FF30C0B2044413F8010F01F8010FD1
:1027FC00A342F9D17244D0B211E08B1C0EF1FF3020
:10280C00C0B201EB4001081D14F8011F03F8021CB3
:10281C0003F8011C02338342F6D17244D0B2BDE8F6
:10282C00F08F064601F1FF3C01340EF1FF33DBB2B1
:10283C001C444FF003084FF0010900270136B24643
:10284C0096F800B0042041464B463D461BEA030F68
:10285C0018BF0D435B00DBB28900C9B20138F5D15A
:10286C000CF1010CE3468CF800509AF800A00420FF
:10287C0041463D461AEA030F18BF0D435B00DBB21D
:10288C008900C9B20138F5D18BF8F050A642D5D1E8
:10289C007244D0B2C3E78E1C0EF1FF3C5FFA8CFC85
:1028AC0001EB4C0101F1040C4FF001094FF0000851
:1028BC000134A24694F800B0394604204B464546F4
:1028CC001BEA030F18BF0D435B00DBB28900C9B2D2
:1028DC000138F5D1B34606F8025C06F8015C9AF8AB
:1028EC0000A03946042045461AEA030F18BF0D43D1
:1028FC005B00DBB28900C9B20138F5D18BF8EE5020
:10290C008BF8EF5002366645D2D17244D0B286E7CE
:10291C0000C007209F0300102DE9F0478646C1EB4D
:10292C00011102EB0114214B1C44037802EB43020E
:10293C00D0B204F1020C013BDBB204EB43040434CF
:10294C000326012700250EF1010EF1469EF800A08A
:10295C00042132463B46A8461AEA030F18BF48EA40
:10296C0002085B00DBB29200D2B20139F4D1E2462C
:10297C000CF8028C0CF8018C99F80090042132466A
:10298C00A84619EA030F18BF48EA02085B00DBB23D
:10299C009200D2B20139F4D18AF8EE808AF8EF8035
:1029AC000CF1020CA445CED1BDE8F08700C0072085
:1029BC00C1EB011102EB011312490B4400781249CF
:1029CC00097802290CD0411EC9B2013119444FF0CB
:1029DC00000C03F801CB8B42FBD10244D0B2704700
:1029EC00591E00F1FF3C5FFA8CFC63444FF0000C65
:1029FC0001F801CF81F8F0C09942F9D10244D0B26C
:102A0C00704700BF00C007209F030010C1EB0111ED
:102A1C0002EB011206490A44591EC9B20131114494
:102A2C0012F8013B034302F8013C8A42F8D170478B
:102A3C0000C00720C0EB001001EB0011084BC818B8
:102A4C00CA54084B1B78012B02D0032B02D07047C1
:102A5C0042707047427080F8F12080F8F020704787
:102A6C0000C007209F0300100F4BD3F8C42042F482
:102A7C000012C3F8C4200D4A02205060D3F8AC11E8
:102A8C0041F48061C3F8AC11A3F55023196841F0EF
:102A9C0000411960596841F020015960106140F201
:102AAC00C7331360704700BF00C00F400080084060
:102ABC00084AD2F8C43043F00053C2F8C430064A76
:102ACC00136B43F001031363044B054A5A60002255
:102ADC009A60704700C00F40004000500041005009
:102AEC00088008400B4B9A6842F001029A601A6900
:102AFC0042F001021A6103F5807318604FF48432BE
:102B0C001A6141F00441D9601A6942F001021A615C
:102B1C00704700BF00400050064AD36813F0010F05
:102B2C00FBD0044B98601A46D36813F0100FFBD1FE
:102B3C00704700BF0080084010B5C020FFF7ECFFC5
:102B4C00A620FFF7E9FFA420FFF7E6FFA120FFF77F
:102B5C00E3FF0F4B1C68A0782030C0B2FFF7DCFFFE
:102B6C006078FFF7D9FF8120FFF7D6FF094B9878E3
:102B7C00FFF7D2FF2F20FFF7CFFFA620FFF7CCFFE8
:102B8C004020FFF7C9FFAF20FFF7C6FF10BD00BF05
:102B9C00DC0300104070001008B5E220FFF7BCFF0A
:102BAC00E320FFF7B9FFE220FFF7B6FFFFF7C4FF02
:102BBC0008BD0000034B4FF48012DA614FF4003271
:102BCC00DA61704700C0092008B5FFF7F3FFFFF783
:102BDC00E3FF024B4FF480129A6108BD00C009203C
:102BEC00034B4FF40022DA614FF40032DA61704784
:102BFC0000C0092008B5FFF7F3FFFFF7CDFF024B2C
:102C0C004FF400229A6108BD00C00920034B4FF419
:102C1C008012DA614FF400329A61704700C00920CB
:102C2C00034B4FF40022DA614FF400329A61704783
:102C3C0000C00920034B4FF4C012DA614FF400328C
:102C4C00DA61704700C00920364B1B78002B68D026
:102C5C0010B5354B1B78354A52F82340344AD35CB7
:102C6C00FF2B19D0FE2B22D0324B4FF400229A614D
:102C7C00FFF7E0FF30482C4B1B782D4AD35C503BC0
:102C8C0083720F21FFF72EFF274A13780133DBB233
:102C9C0013701A2B16D810BD264B4FF4C0129A6124
:102CAC00FFF7B4FF78212046FFF71CFFECE7214B20
:102CBC004FF480129A61FFF7B3FF78212046FFF79B
:102CCC0011FFE1E71D4B4FF0FF321A60194B4FF427
:102CDC00C0129A610023144A1370124A1370164BD7
:102CEC00C0221A70A6205870A1229A70144A126839
:102CFC0091782031D970517819712F2159719871AF
:102D0C004021D971AF2018725972B02199721021DB
:102D1C00D97212781A7381225A730A4A92789A736A
:102D2C00B9E77047BA030010E0030010040000106C
:102D3C0088AF010000C00920BC030010B4030010D0
:102D4C00DC0300104070001008B5164B1968164BC8
:102D5C00164A002908BF1346154A1360DA78154B3A
:102D6C009A70154B1F22DA619A614FF48032DA6146
:102D7C009A61FFF779FE114B02225A62FFF798FE17
:102D8C0000230F4A13700F4AFF2111700E4A137063
:102D9C00FFF71AFFFFF72EFF0C4B4FF0FF321A60B4
:102DAC0008BD00BFEC0B0010A8AF0100A4AF0100E0
:102DBC00DC0300104070001000C0092000800840A7
:102DCC00BA030010BB030010E0030010B4030010A2
:102DDC00704700000A4B1B7813B10A4B1B6803B9F0
:102DEC0070470023074A1360074A63211170074A92
:102DFC001370074A1370074B01221A70F0E700BFDB
:102E0C00BB030010B4030010B0030010E00300106B
:102E1C0070000010BA030010054B63221A700023D7
:102E2C00044A1370044A1370044B01221A70704741
:102E3C00B0030010E003001070000010BA03001083
:102E4C00034BFF229A71034B4FF0FF321A6070470D
:102E5C0040700010400C0010034B00229A71034B81
:102E6C004FF0FF321A60704740700010400C001099
:102E7C00014B9879704700BF407000100B4A1060EE
:102E8C0001684FF04023D96102215960102159612A
:102E9C00C221D96301215960054B196843680B4461
:102EAC0004490B6008301060704700BFE803001045
:102EBC001C0C0010EC03001008B5034B9B7903B9F4
:102ECC0008BDFFF7DBFFFBE74070001008B54FF0C3
:102EDC00402302225A608222DA630A22DA6120221B
:102EEC005A6101225A6004F051FD08BD08B5164B19
:102EFC001B6813B3154A126893421ED8124B00225A
:102F0C001A60134B1B681A68DAB14FF6FF718A42CC
:102F1C0014D04FF04021CA6102224A6010224A614B
:102F2C00C222CA6301224A60084A11685A680A44DC
:102F3C0005490A600833064A136008BDFFF7C6FF4F
:102F4C00FBE7FFF7C3FFF8E7EC0300101C0C0010C5
:102F5C00E803001008B5104BD3F8A82142F00C027E
:102F6C00C3F8A821D3F8C42042F00202C3F8C4204D
:102F7C000A4AD36943F40013D3614FF04023002273
:102F8C00DA6010225A618222DA634FF41662DA6137
:102F9C00FFF79CFF08BD00BF00C00F4000C00240FF
:102FAC0070B5FEF70AFDFEF7F1FF00221146654BE6
:102FBC001868FEF715F8644B93F90020634B93F9EE
:102FCC0000309A420ADA013B5BB2002B3EDD5F49CE
:102FDC000B705E4B1B7803335D490B705C4B93F9A4
:102FEC0000309A420FDD01335BB2594A1370594AD3
:102FFC0092F900209342C4BF554B1A70544B1B7866
:10300C00033B524A13700023534A13704F4A92F9F0
:10301C000000524A1070524A1168524A1160524ACA
:10302C00137098420EDD0B1D421ED4B201F1080242
:10303C0002EB8402194604339342FBD14A4B1870BD
:10304C00484B1960474C484D484E34E03F4B0121EA
:10305C001970BEE7C0B2431C2B703146FDF7BDFBA7
:10306C0058223D4B19783046FEF728FA2368186829
:10307C0005F050F86722384B1978FDF7B1FF23683B
:10308C0004332360FEF782FF344A92F90030591C56
:10309C0011702D4A92F900209A4222D055222E4BC3
:1030AC0019783348FFF784FC2B4A137802335BB250
:1030BC001370062B1DDC23681B68D3B1FEF766FF6B
:1030CC0095F900000928C5DD0A28CFD1314600202A
:1030DC00FDF783FB5822204B19783046FEF7EEF9AA
:1030EC00C4E7002355221C4909782148FFF762FBED
:1030FC00DAE7164B93F90030012B16DD0023E92299
:10310C0019461C48FFF756FB164B1B681B6893B1FE
:10311C000023E92206211848FFF74CFBFF2007F09B
:10312C009BFC164BFF221A7070BDE922002111483E
:10313C00FFF73EFCE8E7E92206210F48FFF738FCD1
:10314C00ECE700BF14040010F30300101904001086
:10315C00F2030010F1030010180400101A04001000
:10316C006C04001000040010F0030010F8030010B1
:10317C0054F903005CF9030064F9030070000010BB
:10318C0008B50B4B186042680A4B1A60036893F938
:10319C0000200AB901221A7003681A78064B1A70BB
:1031AC00064B00221A70064800F0D6FB08BD00BF83
:1031BC00040400106C04001040040010F403001010
:1031CC0005330000034B1968034A116000221A6092
:1031DC00704700BF0C04001010040010034B19685A
:1031EC00034A116000221A60704700BF10040010DF
:1031FC000C04001010B50E4BFF221A700131C9B22D
:10320C000C4A11700C4B186000230C4C23600C4CB6
:10321C00D0F804C0C4F800C00468217001680978B3
:10322C001170084A1370084800F096FB10BD00BFDF
:10323C00F5030010400400100404001008040010F2
:10324C006C040010F40300100533000008B5044BA7
:10325C00FF221A70034B00221A60FFF791FF08BD82
:10326C00F50300100804001008B5044B1970044B4A
:10327C0000221A60FFF784FF08BD00BFF5030010A1
:10328C000804001008B51548FFF716FE00F0CCFB3B
:10329C00134B1B689BB9134B93F90030B3F1FF3FF1
:1032AC0008BF0323104A1370104A0023937010496F
:1032BC00097851700F4A137001F002FF08BD01F03C
:1032CC00FFFE0C4B00221A7000F0AEFB00F0ACFBC2
:1032DC000321034B1868FFF7C7FFEFE750B001005D
:1032EC0008040010F50300107904001054040010B9
:1032FC00F30300101505001038B58E4B93F9004000
:10330C00032C47D000258C4B1D708C4B01221A705E
:10331C008B4B1B688B4C2360186804F0FBFE8A4BAC
:10332C0018608A4B93F90000894B18702368894AFE
:10333C00157003F1080222605B68002B00F0F0802E
:10334C002B4601335BB252F8041B0029F9D1814999
:10335C000B707C490A60984202DD7D4A0121117094
:10336C007D4A012111707D4A032111708B4209DDC8
:10337C00774B93F900308B4204DDD91E764A1170DD
:10338C00764A1370FFF70CFE6A4B03221A7038BD95
:10339C000023E2E7FEF720FBB0B9674B1B78C3B9FB
:1033AC006F4B1D68002DF2D0132D2ADC0B2D40F332
:1033BC008880A5F10C02072A00F28380DFE802F076
:1033CC0044663881472A8144FEF70CFBFFF7E8FD81
:1033DC00DDE7594B00221A7000F026FB614B93F984
:1033EC000030B3F1FF3F08BF2346524A13705E4BC7
:1033FC000B229A70564A12785A70504B00221A704F
:10340C00C5E740F20D22954240D040F21122954280
:10341C0040F083805548FFF74FFD4D4B93F900303A
:10342C00012B4AD0013B4A4A1370FFF7B9FD3DE02E
:10343C004F48FFF741FD00F043FC10B101F040FE96
:10344C00A5E7FFF71FFFF9E7FFF71CFF9FE74848C9
:10345C00FFF732FD00F0E8FA424B93F90030B3F17C
:10346C00FF3F08BF2346334A1370394B93F90030A2
:10347C00D9B23D4A917051703E4A1268126813706D
:10348C002E4B00221A7001F01BFE80E73748FFF725
:10349C0013FD2F4B93F900302E4A92F900209A42DB
:1034AC0007D001332A4A1370FFF77AFD01F008FEAA
:1034BC006DE73148FFF700FDF8E72F48FFF7FCFCFC
:1034CC00F4E70A2D29DC012D02D0013D06D000E0E5
:1034DC000A25204B93F90030AB4202DA01F060FE72
:1034EC00E4E72348FFF7E8FC00F09EFA1D4B93F944
:1034FC000030B3F1FF3F08BF23460E4A1370EAB207
:10350C00194B9A705A701B4B1B681B681D700B4B28
:10351C0000221A7001F0D4FD39E701F041FEC5E735
:10352C0000283FF735AF0C4B01221A700B4B0322CE
:10353C001A7027E779040010F40300101505001029
:10354C006C0400100004001014040010400400105F
:10355C00F3030010F103001019040010F203001023
:10356C000C0C0010F50300105404001030B00100D6
:10357C0050B0010004040010D4AF0100014BFF2235
:10358C001A707047F403001008B5FFF727FE0A4BBA
:10359C001A780A4B1A700A4B00221A7000F044FA7F
:1035AC00084B1B78FF2B08BF0623074A1370054BEB
:1035BC00FF221A7008BD00BF1D0400104C0C001037
:1035CC0015050010780400107904001008B5204B84
:1035DC001B68B3B1102B15D0122B24D00C2B06D09A
:1035EC0013F47F4F30D11B48FFF766FC07E01A48F5
:1035FC00FFF762FC194B02221A70FFF7C5FF01F0AE
:10360C005FFD08BD164B1B78012B08D01248FFF745
:10361C0053FC124B01221A70FFF7B6FFEFE70D486F
:10362C00FFF74AFCEBE70E4B1B78012B08D00A483E
:10363C00FFF742FC094B04221A70FFF7A5FFDEE7E7
:10364C000448FFF739FCDAE701F0AAFDD7E700BF21
:10365C000C0C00103CB0010050B0010054040010E0
:10366C001B040010264B93F90030022B46D010B5EA
:10367C00032B40D0012B03D0214B01221A7010BD1B
:10368C0001F01EFDFFF79EFD1E4B19781E4A1170AE
:10369C0000241C701D4B02221A70FEF78EF9224674
:1036AC0021461B4B1868FEF7E7FBFEF76FFC194B26
:1036BC001B78CBB9184B186818B105220221FDF7FD
:1036CC00FDFEFEF763FC00220621144B1868FEF782
:1036DC00D3FBFEF749FC124BFF221A70084B032256
:1036EC001A7001F049FDCAE7052202210D4B18683A
:1036FC00FEF7C2FBE5E7FFF769FFC0E7704700BFC5
:10370C00790400104C0C00101D040010150500105D
:10371C002C0400101C0400102804001024040010B9
:10372C00700000102004001010B5094C20600948EE
:10373C0001600949FF20087008490A60084A1370A3
:10374C00084B01221A70084800F006F910BD00BFA2
:10375C002C040010200400101C0400102404001081
:10376C00780400101B0400107136000010B5094CD1
:10377C002060094801600949FF20087008490A6067
:10378C00084A1370084B00221A70084800F0E4F83D
:10379C0010BD00BF2C040010200400101C040010ED
:1037AC0024040010780400101B0400107136000073
:1037BC0010B5084C206008480160002107480170D2
:1037CC0007480260074A1370074B1970074800F04E
:1037DC00C3F810BD2C040010280400101C040010A9
:1037EC0024040010780400101B0400107136000033
:1037FC0010B5094C20600948016009490020087087
:10380C0008490A60084A1370084BFF221A700848CE
:10381C0000F0A2F810BD00BF2C040010280400100A
:10382C001C04001024040010780400101B04001069
:10383C00713600000023074A1370074A1360074AC9
:10384C001370074A1380074A1360074BFF221A7044
:10385C00704700BF3C040010300400101405001029
:10386C003A04001034040010380400100023064AF7
:10387C001370064A1360064A1370064A4FF4FB7124
:10388C001180054A136070473C040010300400108E
:10389C00140500103A04001034040010164B1A687A
:1038AC00164B1B689A4226D910B5134B1B6803F5AF
:1038BC00C873124A1360124B1B7873B1104B002261
:1038CC001A70104B1B78012B00D010BD0D4B1A70C9
:1038DC0088470D4B01221A70F7E7094BFF221A702B
:1038EC00084B1B78002BF0D10124064B1C70804731
:1038FC00054B1C70E9E770471C0C001030040010DD
:10390C00140500103C0400107000001008B54FF4B2
:10391C000072FFF7C3FF08BD08B55208FFF7BEFFE2
:10392C0008BD0000024B1868024B1860704700BFBE
:10393C007004001074040010054B1B7813B9054B70
:10394C0018687047013BDBB2024A52F833007047EB
:10395C00040500107C04001010B5134991F90030D7
:10396C00124A1468124A42F8334002EBC3024FF079
:10397C00000C82F804C00F4A146001335BB20B7068
:10398C000F2B0EDD10220A70084B0B4A1A60002315
:10399C000A4A13700A4A13800CF0D8F8FEF7E4FABE
:1039AC0010BD024B1860F2E7040500107004001003
:1039BC007C04001074040010F13C00007904001029
:1039CC000605001038B5114C94F90030104A1568F2
:1039DC00104A42F8335002EBC30211710E4A1560C3
:1039EC0001335BB223700F2B0CDD10222270084BBD
:1039FC000A4A1A6000230A4A13700A4A138006F016
:103A0C0069FE38BD024B1860F4E700BF04050010D6
:103A1C00700400107C04001074040010F13C0000D1
:103A2C00790400100605001008B50F4A1378013B05
:103A3C005BB21370002B0EDB0C4A52F833000C49AE
:103A4C00086002EBC3031A790A4B1A7006F042FEA7
:103A5C00FEF78AFA08BD00231370054A0649116067
:103A6C00044A1370F2E700BF040500107C04001038
:103A7C007004001079040010F13C000070B50C4685
:103A8C00034600B1431E144E3360144D2946D8B280
:103A9C00FCF7E4FE01467078FCF7E0FE0146B078D6
:103AAC00FCF7DCFE0146F078FCF7D8FEAB7923700E
:103ABC00EB7963702B79A3706B79E370AB7823711E
:103ACC00EB7863712B78A3716B78E37106F002FECF
:103ADC0004F1080070BD00BF1005001008050010AF
:103AEC002DE9F0470446884600251D4E4FF0200A6C
:103AFC00DFF87090EBB2E718FFB23033337086F812
:103B0C0001A0B11C59F83500FFF7B8FF0023037072
:103B1C00424639463046FDF7D1FC0135052DE9D139
:103B2C00104F35250E4E4FF0200908F141085FFA71
:103B3C0088F8357086F80190B11CB86AFFF79EFFC3
:103B4C000023037021460134E4B242463046FDF7AF
:103B5C00B5FC0135EDB208373A2DEAD1BDE8F08756
:103B6C00C80C00107C04001070B505460E460D4CB8
:103B7C0050232370742363707223A3703D23E3706E
:103B8C00202323716371A371E11D074B1878FCF797
:103B9C0066FD00230370324629462046FDF78EFC55
:103BAC0070BD00BFC80C00100405001070B50546B0
:103BBC000E460D4C492323706E2363702023A37093
:103BCC005522E2707322227165226271A371E11D8C
:103BDC00064B1868FFF752FF002303703246294644
:103BEC002046FDF76BFC70BDC80C00107004001073
:103BFC0070B505460E460D4C43232370612363704C
:103C0C006C23A370E370202323716371A371E371A0
:103C1C0004F10801064B1868FFF730FF002303700E
:103C2C00324629462046FDF749FC70BDC80C0010F1
:103C3C00740400100023054A1370054A05491160ED
:103C4C00054A1370054A1370704700BF0405001035
:103C5C0070040010F13C00007904001015050010F0
:103C6C0008B5054B1B680BB1984708BD024B034ABE
:103C7C001A6000F037F8F8E770040010F13C00000F
:103C8C00034B1B68034A1360034A1360704700BF61
:103C9C00700400107404001068040010014B002222
:103CAC001A6070476804001008B5FFF7C3FF024B99
:103CBC001A68024B1A6008BD6804001070040010EA
:103CCC0010B5064B1C68002004B910BDFFF7B2FFFD
:103CDC00034B1C604FF0FF30F7E700BF6804001087
:103CEC007004001008B51F4B93F90030022B27D03D
:103CFC00032B26D002F090FD0BF0C0FFFDF75DFE0C
:103D0C00002211461848FDF7D9FB00210120FFF7CE
:103D1C006FFF00210220FFF749FF00210320FFF76E
:103D2C0023FF64210020FFF7DBFE002206210F4851
:103D3C00FDF7C4FB0B4B03221A700D4BFF221A70BC
:103D4C0008BD0C4B1B68002BFAD0102B02D001F0D5
:103D5C00B7F9F5E70848FFF7AFF801F0B1F9FCF750
:103D6C0059FAF4E779040010A0B00100B4B00100D6
:103D7C00700000100C0C001050B00100F8B5044697
:103D8C00534B1A6892F82830022B1AD0032B22D0EE
:103D9C00012B0CD0FEF7E8F84D4B1B685A7C197CB4
:103DAC002046FDF78BFB4B4BFF221A70F8BDFEF73C
:103DBC00E7F8474B1B685A7C197C2046FDF77EFBC5
:103DCC00F1E7FEF7E3F8424B1B685A7C197C20465E
:103DDC00FDF774FBE7E7527C0378002BE3D00A274E
:103DEC0012263B4D0CE00B2000E00F20296800232D
:103DFC00097CFEF703FA024614F8013F002BD2D0DF
:103E0C00191F2A295ED801A050F821F0F73D0000B7
:103E1C00D13E0000D13E0000D13E0000D13E00005A
:103E2C00D13E0000D13E0000D13E0000D13E00004A
:103E3C00D13E0000D13E0000D13E0000D13E00003A
:103E4C00D13E0000D13E0000D13E0000D13E00002A
:103E5C00D13E0000D13E0000D13E0000D13E00001A
:103E6C00D13E0000D13E0000D13E0000D73E000004
:103E7C00CD3E0000D13E0000D13E0000F73D0000D9
:103E8C00D13E0000D13E0000D13E0000D13E0000EA
:103E9C00D13E0000D13E0000D13E0000D13E0000DA
:103EAC00D13E0000D13E0000C93E0000D13E0000D2
:103EBC00C53E0000F33D00000C2097E70D2095E770
:103ECC00304693E7303BD8B290E738468EE700BFD8
:103EDC005C0500107000001010B5164C2068FF2314
:103EEC0090F834201449FDF7FFFE0023037022687C
:103EFC0092F83530022B16D0032B0FD0012B0E4B22
:103F0C0003F1030108BF0B4604211970597092F894
:103F1C00253053B10948FFF731FF10BD074B042181
:103F2C0099720B33F0E7064BEEE70348FFF726FFD9
:103F3C00F3E700BF5C050010610500106005001080
:103F4C006705001010B50E4C2068FF2390F8342044
:103F5C000C49FDF7C9FE00230370236893F8252054
:103F6C0052B193F82630002B14BF2B232D23064877
:103F7C000370FFF703FF10BD0248FFF7FFFEFAE7DF
:103F8C005C050010610500106005001038B51D4C73
:103F9C001D4D2C60217462749DF8102084F828202B
:103FAC0084F834309DF8143084F825309DF818309E
:103FBC0084F82630E06203682363002384F82430FD
:103FCC00124B1B78FF2B18D00E4A82F835300F4B52
:103FDC00FF221A700B4901F13000FCF7BFF90024E5
:103FEC000470094B1A680A4B1178197052785A7080
:103FFC00FFF73CFC074B1C7038BD002284F83520C1
:10400C00E8E700BF1C0500105C05001071000010F3
:10401C001805001058050010F0B583B08849894880
:10402C00FFF774FC884B1C68002C00F0D280002534
:10403C00182C17DC0A2C40F3DF81A4F10B030D2B99
:10404C0000F2DA81DFE813F067015700E100D801D4
:10405C00D8010E01C800D801D801D801D801D80167
:10406C008200930040F211239C4200F08E8040F6B7
:10407C000C039C4218D17548FEF71EFF744B1B684D
:10408C001A782AB12D2103F8011B1A78002AFAD1CB
:10409C00FFF7ECFB06F01EFB6D4B1B68DB6A4FF069
:1040AC00FF321A60002492E040F20D239C4240F053
:1040BC00A5816848FEF700FF654B1D6895F83560D3
:1040CC0005EB4604032E00F0A7802046FCF716FBF8
:1040DC00002840F09E805E4B1B6893F835305E4A9A
:1040EC00D05C214640B2FCF7F7FAFFF7BFFB00F0BB
:1040FC00E7FF00246BE0594B1B7813B35348FEF7D2
:10410C00DBFE564B00221A70514B1B6893F835207E
:10411C00022A12D0032A12D0012A06D0022A05D96B
:10412C0030221A705A709A7003E0023330221A70DF
:10413C005A70FFF79BFB002449E00433F6E7063383
:10414C00EEE74248FEF7B8FE012440E03F4D28461A
:10415C00FEF7B2FE3E4B1B68002483F82640FFF7A7
:10416C0085FB2846FEF7A8FE3C4B1C702FE0374819
:10417C00FEF7A2FE364B1B68012283F82620FFF7C0
:10418C0075FB0024354B1C7021E03248FEF794FE81
:10419C002F4B1D6895F8356005EB4604032E1FD098
:1041AC002046FCF7ABFA2A4B1B6893F835302A4AA9
:1041BC00D35C83421ABF0130C0B20020214640B20A
:1041CC00FCF78AFAFFF752FB00F07AFF002400F0AC
:1041DC0077FF204603B0F0BD1C48FEF76DFED7E715
:1041EC002046FCF72DFA40F2E733984214BF013019
:1041FC0000201B4F3946FCF799FABB7805F81630AE
:10420C00FB7863703B79A370DCE71048FEF754FE33
:10421C0052E70138C0B264E72046FCF711FA60B1EE
:10422C0001380F4F3946FCF781FABB7805F8163088
:10423C00FB7863703B79A37057E740F2E730F0E707
:10424C00E53E0000513F00000C0C001050B0010086
:10425C005C05001030B00100CCB001005805001016
:10426C00640C0010974B1A6813782D2B4ED0531EEC
:10427C000832302013F8011F2D2908BF1870934203
:10428C00F8D19148FEF718FE8E4B1C6894F83560F7
:10429C0004EB4607022E00F20F8114F81630042BA3
:1042AC0046D094F83530002B0CBF17253B253846EB
:1042BC00FCF709FAA84243D8844B1B680B2B60D13E
:1042CC00804B1A6892F835300133DBB282F8353006
:1042DC0092F83410002940D0032B44D9002382F8E3
:1042EC00353092F8351002EB4100794B12F8111071
:1042FC00197041785970002482F82440FFF7B6FAFF
:10430C007148FEF7D9FD734B1C7060E76E48FEF7E1
:10431C00D3FD02245BE76B4B1B681A4619782D29D9
:10432C00A5D10933302102F8011B9342FBD1A8E738
:10433C00302304F8163094F83530022BB3D9BDE095
:10434C00634B1A7804F816205B787B706248FEF792
:10435C00B3FD00F0B5FE00243BE7022B03D900238C
:10436C0082F83530BDE702EB4300594912F813408F
:10437C000C7044784C70032BBDD18178544B9970E0
:10438C00B9E7504C2068FCF79EF9544B03FB00F046
:10439C00019020680230FCF796F9019B4EF66022E2
:1043AC0002FB0033019320680430FCF78CF9019B6D
:1043BC004FF47A7202FB0033019320680630FCF74D
:1043CC0082F9019B00EB800003EB40000190236815
:1043DC0001991A7A30390A44019293F8252032B1A6
:1043EC0093F826201AB9019A42F000420192DB6A36
:1043FC00019A1A600224EAE60A2C03DD00F0D0FED2
:10440C000024E4E63048FEF757FD2E4B1B6893F86A
:10441C003520022A30D0032A30D0012A13D0194675
:10442C002C4801240470022A11D993F82420012A63
:10443C0038D0022A3BD052B3DA799A7103F10801D1
:10444C001A7ADA7129E0991C224A0120107093F82B
:10445C002420C2B9012283F824200A46042302F83E
:10446C00013B1A4B1B682F331370FFF7FFF91648EB
:10447C00FEF722FD0024AAE6191DE5E7991D154A51
:10448C0001201070D1E74A1C4B780B70E9E7012230
:10449C0083F8242030234B708B700C4B1B682F330C
:1044AC000B70E2E70131022283F82420F5E7023198
:1044BC00032283F82420F0E794F83530032B08BF4F
:1044CC006325F4E65C05001050B001000C0C0010E4
:1044DC0018050010580500103CB0010080EE3600A5
:1044EC0010B5124C23680822591C9869FCF708F87F
:1044FC0000230370236893F825206AB193F82620D3
:10450C00012A0AD0022A0CD05A691268002AB4BFB8
:10451C002D222B2283F8272010BD2D2283F8272053
:10452C00FAE72B2283F82720F6E700BF7C05001062
:10453C002DE9F04104460E4615461F469DF818809D
:10454C003C2015F009FF264B1860C77306744574A0
:10455C004461236823F000438361079BC361089B7C
:10456C000362002380F824309DF8282080F8252051
:10457C009DF82C2080F826201A4A80F827209DF8D8
:10458C00242080F8282080F836809DF8302080F890
:10459C00372080F838309DF8343080F83930FFF708
:1045AC009FFFB8F1000F11D1FFF760F90E4B0022FD
:1045BC001A600B4B1B6893F8393013F0010F03D0C2
:1045CC000A4B4FF0FF321A60BDE8F0810022062141
:1045DC000748FCF773FF074BFF221A70E4E700BF94
:1045EC007C050010ACDF0100740500107005001094
:1045FC00D4B001007000001038B52A4B1B68DC7B6E
:10460C0093F825200AB10134E4B293F82820022A49
:10461C001FD0032A2CD0012A08D02246597C187CA2
:10462C00FDF77EFA204BFF221A7038BD04EB4404D0
:10463C00A400E4B22246597C187CFDF771FA194BA0
:10464C001B68187C01302246597CC0B2FDF768FA11
:10465C00E8E72246597C187CFDF762FA114B1B687F
:10466C00187C01302246597CC0B2FDF759FAD9E7C3
:10467C002401E4B22246597C187CFDF751FA094D0D
:10468C002B68187C01302246597CC0B2FDF748FAE1
:10469C002B68187C02302246597CC0B2FDF740FAD8
:1046AC00C0E700BF7C05001070000010F8B56C4B23
:1046BC001D68681C6E78002E52D0024612F8013F1D
:1046CC00002BFBD102F1FF3CE97B002900F0B1800B
:1046DC0063460139C9B2521A911E00249C4613F844
:1046EC0001292F2A04D9303A14449C468B42F5D127
:1046FC0095F8373013B9002C00F0A08095F82530D0
:10470C0093B395F827308CF800306B781BB110F808
:10471C00013F002BFBD1441EE97B41B10023013347
:10472C00DAB28A42FBD3494261F0FF010C4495F89E
:10473C00253003B9013495F82830022B20D0032BF7
:10474C0028D0012B12D0FDF70FFC454B1B685A7C6F
:10475C00197C2046FCF7B2FE424BFF221A70F8BDC2
:10476C000246AFE7034672E00423CCE7FDF708FCF2
:10477C003B4B1B685A7C197C2046FCF79FFEEBE7F1
:10478C00FDF704FC364B1B685A7C197C2046FCF761
:10479C0095FEE1E76A7C2378002BDDD00F260D27F0
:1047AC002F4D0EE00C2002E0304600E0122029686C
:1047BC000023097CFDF722FD024614F8013F002B73
:1047CC00CAD0042B31D0A3F11D01C9B2102929D8AC
:1047DC00A3F11D01102925D801A050F821F000BF2C
:1047EC00B94700003148000031480000B5470000CF
:1047FC0031480000314800003148000031480000C9
:10480C0031480000314800003148000031480000B8
:10481C0031480000314800003B480000314800009E
:10482C00B1470000303BD8B2C1E73046BFE738464D
:10483C00BDE795F83730002B7FF460AF002E91D098
:10484C000346042103F8011B1A78002AFAD1A3F1BC
:10485C00020C1D2203F8012C002385F824304DE7AF
:10486C007C0500107000001010B588B0002407946F
:10487C009DF8404006949DF83C4005949DF83840C6
:10488C0004949DF8344003940C9C02940B9C01946A
:10489C009DF828400094FFF74BFE08B010BD0000B7
:1048AC0038B59D4B1B6813B19C4B1B6803BB9C49D3
:1048BC009C48FFF72BF89C4B1C68002C3FD0182C05
:1048CC0021DC0B2C40F3ED80A4F10C030C2B00F23B
:1048DC00E880DFE813F09100E600E600E600360021
:1048EC00E600E600E600E600E600E600B800CF00D1
:1048FC0000238A4A1360884A13608C4B186815F0A1
:10490C0073FD01241BE040F60C039C4240F0F28046
:10491C00864B1B681A782AB1042103F8011B1A78FC
:10492C00002AFAD1302203F8012CFEF79FFF8048B1
:10493C00FEF7C2FA05F0CEFE002400F0C1FB2046C3
:10494C0038BD7A4B1D686B1CE97B6A781AB113F879
:10495C00012F002AFBD18C46082928BF4FF0080CE8
:10496C0029B39E460021734813F8012D2F2A09D92B
:10497C00303A50F8044B04FB0211AEEB0302D2B2F6
:10498C009445F1D8EB698B421BDB2B6A8B4218DC0C
:10499C006B69196095F827302D2B0AD06448FEF707
:1049AC008BFA624B186815F01FFD0224C5E7002135
:1049BC00E8E70029F2D06A69136843F000431360FA
:1049CC00ECE795F8383003B151B1002485F8244058
:1049DC00FFF786FDFEF74AFF5748FEF76DFAACE786
:1049EC006B6900221A605248FEF766FA4F4B186842
:1049FC0015F0FAFC0224A0E7504B1B68D3B14F4BC7
:104A0C0000221A60494B1B681A782AB1042103F85A
:104A1C00011B1A78002AFAD1302203F8012CFEF778
:104A2C0025FF4348FEF748FA404B1B68002483F8E7
:104A3C00244082E73D4B186815F0D6FC3C48FEF745
:104A4C003BFA012479E7394B1B6893F8252062B1B6
:104A5C003A4A012111602D2283F82720FEF706FF28
:104A6C003348FEF729FA002467E73348FEF724FAA7
:104A7C00002462E72D4B1B6893F8252062B12F4A66
:104A8C00012111602B2283F82720FEF7EFFE284826
:104A9C00FEF712FA002450E72748FEF70DFA00241F
:104AAC004BE70A2C26DC254B01221A601F4B186899
:104ABC0090F8243013BB80F82420811843782BB154
:104ACC00042201F8012B0B78002BFAD10139431C7D
:104ADC0042781AB113F8012F002AFBD190F8252047
:104AEC00B2B1C27BD0439A1A04241C5413787BB302
:104AFC00042029E000F054FB00241EE7411C8378BD
:104B0C00002BE4D001F8013B4B78002BFAD1DEE707
:104B1C00C27B9A1AEAE700BF7005001078050010F6
:104B2C0005460000B94600000C0C00107C05001076
:104B3C0050B00100E4B001003CB00100740500105D
:104B4C00107012F8013F1BB1302BF9D0042BF7D0A9
:104B5C00054B1B682F330B70FEF788FE0348FEF7DE
:104B6C00ABF90024E9E600BF0C0C001050B00100BA
:104B7C0082B003468DF807309DF8073003F01F0311
:104B8C00012202FA03F1044A9DF907305B0942F84D
:104B9C00231000BF02B0704700E100E082B0034672
:104BAC008DF807309DF8073003F01F03012202FA3D
:104BBC0003F1054A9DF907305B09203342F82310B5
:104BCC0000BF02B0704700BF00E100E082B00346B6
:104BDC0000918DF807309DF90730002B0CDA009B03
:104BEC00DAB20C499DF8073003F00F03043BD200F6
:104BFC00D2B20B441A7609E0009BDAB206499DF951
:104C0C000730D200D2B20B4483F8002300BF02B0AD
:104C1C00704700BF00ED00E000E100E0014B1B78A5
:104C2C00184670478105001008B5114B9B69104A56
:104C3C0043F4707393610E4B1B680D4A23F480731D
:104C4C0013600B4B1B680A4A43F430731360084B18
:104C5C009B69074A43F430739361064B1B6C054AFE
:104C6C0023F47023136400F0E9F900BF08BD00BF02
:104C7C0000C0092000C0024000B583B003468DF887
:104C8C000730084B01221A70074A9DF80730137041
:104C9C00064B00221A7000F00BF800BF03B05DF851
:104CAC0004FB00BF070F00108A050010080F00104E
:104CBC0008B50B4B1B781A460A4B9A5C0A4B1A70B8
:104CCC00074804F089FD094B01221A70084BDB6977
:104CDC00074A43F04003D36100F092F900BF08BDCE
:104CEC00080F0010C0F70720880500108105001080
:104CFC0000C0092000BF7047114BDB69104A43F01C
:104D0C008003D3610F4B80221A700F4B1A780D4B16
:104D1C001B781340DBB2002B06D0094B9B69084A69
:104D2C0043F40073936105E0054BDB69044A43F4DB
:104D3C000073D361054B02221A7000BF704700BF8D
:104D4C0000C00920800500108805001081050010A6
:104D5C000C4B9B690B4A43F0800393610A4B1B7805
:104D6C005B08DAB2084B1A70074B1B78002B03D088
:104D7C00064B03221A7002E0044B04221A7000BF87
:104D8C00704700BF00C0092080050010810500108D
:104D9C000F4BDB690E4A43F08003D3610D4B1A783D
:104DAC000D4B1B781340DBB2002B06D0084B9B69D4
:104DBC00074A43F40073936105E0054BDB69044A31
:104DCC0043F40073D361054B02221A7000BF704785
:104DDC0000C0092088050010800500108105001016
:104DEC0008B51F4BDB691E4A43F08003D3611D4B92
:104DFC001A781D4B1B789A420DD21A4B1B781A4607
:104E0C001A4B9A5C1A4B1A70164804F0E5FC194BB5
:104E1C0001221A7021E0184B1B78002B09D0174B7C
:104E2C0000221A70164B00221A70124B05221A70AF
:104E3C0013E000F0F3F80C4B00221A70094B00221F
:104E4C001A70074B9B69064A43F040039361044B6D
:104E5C009B69034A43F08003936100BF08BD00BF08
:104E6C0000C00920080F0010090F0010C0F7072020
:104E7C0088050010810500108A05001089050010B6
:104E8C00060F0010084B9B69074A43F0800393619F
:104E9C00064B80221A70064B07221A70054B002213
:104EAC001A7000BF704700BF00C0092080050010B9
:104EBC0081050010890500100F4B5B6903F48073AA
:104ECC00002B07D00D4B1A780D4B1B781343DAB21D
:104EDC000A4B1A700A4B1B785B08DAB2084B1A7033
:104EEC00054BDB69044A43F08003D361054B062272
:104EFC001A7000BF704700BF00C009208905001060
:104F0C008005001081050010094B1B78002B09D07F
:104F1C00084B9B69074A43F080039361064B0722B9
:104F2C001A7002E0044B08221A7000BF704700BFD1
:104F3C008005001000C009208105001008B5174B32
:104F4C00DB69164A43F08003D361154B1B781A4674
:104F5C00144B1978144B9954114804F03DFC134B25
:104F6C001B78013BDAB2114B1A70104B1B78002BDB
:104F7C0003D00F4B05221A700DE000F04FF8074BD1
:104F8C009B69064A43F040039361044B9B69034AB7
:104F9C0043F08003936100BF08BD00BF00C009202F
:104FAC00060F00108905001088F807208A050010EC
:104FBC008105001008B50D4B01221A600C4B1B78B3
:104FCC00082B05D90B4B01221A70094B08221A70B9
:104FDC00074B1B781A46084B53F82230074A1360CC
:104FEC00064B1B68984700BF08BD00BF0040094036
:104FFC00810500108A05001008B10100840500101D
:10500C0008B50420FFF7B4FD034B02225A60024B93
:10501C0001225A6000BF08BD0040094008B50420B9
:10502C00FFF7BCFD034B02225A60034B00221A709F
:10503C0000BF08BD004009408105001000B583B0D9
:10504C00134BD3F8AC31124A43F48043C2F8AC3161
:10505C000F4BD3F8C4300E4A43F40003C2F8C430EB
:10506C000C4B01937F2301930B4B7F229A610A4BCC
:10507C000022DA60084B03225A6107210420FFF753
:10508C00A5FDFFF7CBFF00BF03B05DF804FB00BF2D
:10509C0000C00F4000F8240100400940054B1B786C
:1050AC00054A12789A421ABF044A52F8230000208B
:1050BC00704700BFF0050010F1050010A0050010AE
:1050CC0000220B4B1A600B4B1B780B4941F8232029
:1050DC000A4A12789A4209D00133DBB2132B02D858
:1050EC00044A13707047034B00221A70704700BFBC
:1050FC000C0C0010F0050010A0050010F1050010BC
:10510C000023114A137011491A4641F83320013318
:10511C00192BFAD100230E4A13700E4A13700E4A43
:10512C0013600E4A13600E4A13600E4A13700E4A37
:10513C0013700E4A13600E4BFF221A700D4B41F682
:10514C000C029A65704700BF90050010FC0500101A
:10515C00F1050010F00500108C050010F40500108E
:10516C00940500104B0C00109C050010F805001065
:10517C007200001000C0092008B5034BFF221A7002
:10518C00FFF7BEFF08BD00BF7800001008B5034B49
:10519C0000221A70FFF7B4FF08BD00BF78000010A2
:1051AC0008B50B4B1B7823B10A4B1B6813F4C06F6B
:1051BC0007D0084B1B6823F40F6323F00F031BB1BC
:1051CC0008BD05F087FAF4E70348FDF775FEF7E72D
:1051DC004B0C00100C0C00103CB00100034B586D34
:1051EC0080F40050C0F34030704700BF00C009206D
:1051FC0038B58B4B1C68A4B98A4B1878002800F082
:10520C00DF80894B1D68B5B9884B1B787BB1884B07
:10521C005C6D04F47C74002C00F0D380824B1C6019
:10522C0017E0013C04F007041C600020C8E0FFF705
:10523C00D5FF0446EFE77D4B1B78002B54D07C4BFD
:10524C005B6D03F47C73AB4208BF2C46764B00229B
:10525C001A600023774A1360774A1360734B1B78EC
:10526C001A46764951F823100C4200F0B28074496A
:10527C0051F8331000293DD1724951F823106D4873
:10528C0001607148007818B141F40061694801600F
:10529C006E4908686A4941F8320001EBC2010520E9
:1052AC0048606B496B4850F82220086802430A603A
:1052BC00604A1068002863D0674A1278674941F841
:1052CC0022000132D2B2132A4CD863490A70644AC4
:1052DC00127861490978914252D10132D2B2132A23
:1052EC0044D85F490A704BE0FFF778FF854208BF4E
:1052FC000446ABE75B48007800283FD05348006871
:10530C00411AB1F5FA7F39D94E4951F8231041F4BD
:10531C000074484804604C48007818B141F420618E
:10532C0044480160464901EBC201496891B14448C7
:10533C0000EBC2040139616044490968A1F596711A
:10534C0040F832104249434850F822200868024382
:10535C000A60ADE73D490968A1F5E171384840F8AC
:10536C003210EFE73C4A00211170B0E73C4A0021B3
:10537C00117005E02D4B00221A7009E02D4A1068BF
:10538C002D4A10600133DBB2182BF3D8274A137067
:10539C00234B00221A60254B1A78334B53F82230DA
:1053AC00324909688B420AD030490B602049CB65E1
:1053BC002F4B53F822308B65194B07221A60C0B261
:1053CC0038BD00231B4A13601B4A1360174B1B7814
:1053DC001A461B4951F832100029CFD01B480068DF
:1053EC00411A6429CAD91649002041F8320001EB50
:1053FC00C2014860134951F8221041F480640D48F1
:10540C0004601148007818B141F44061094801600A
:10541C000F49184850F82220086802400A6047E7F4
:10542C0094050010780000109805001090050010ED
:10543C0000C009208C050010F40500105CB20100BE
:10544C00FC05001030B101004B0C00101C0C0010BE
:10545C00F8050010F8B10100F1050010A0050010CE
:10546C00F005001072000010C0B2010074000010B2
:10547C0024B3010094B1010038B53C4B93F90030D2
:10548C00032B1ED0FCF799FA002211463848FCF782
:10549C0015F80A2202213748FCF710F80A220421D9
:1054AC003548FCF70BF80A2205213448FCF706F8BE
:1054BC002E4B03221A70324BFF221A700AF0DEFBBD
:1054CC0038BD00F0F7F850B92E4B1B68002BF7D005
:1054DC000C2B23D0102B2BD0FFF762FE25E000F015
:1054EC00DFF8294C2146FBF707FA0025057032221C
:1054FC0003212046FBF7E2FF00F0D2F82146234BB4
:10550C0093FBF0F0FBF7F8F90570642203212046B9
:10551C00FBF7D4FF1A4BFF221A70D5E71C48FDF796
:10552C00CBFC0AF0A5FBFEF77FFAFFF7C9FDC7E736
:10553C001748FDF7C1FCFEF777FA01240B4B1C70E2
:10554C000AF096FB00F0ACF8104B93FBF0F0114A0C
:10555C001083114B93FBF0F310490B80104B93FB12
:10556C00F0F0104B18801470DFE700BF79040010C6
:10557C0088B301009CB30100B8B30100D4B301009F
:10558C00700000100C0C0010640C001020A107001F
:10559C0050B0010000700010E0750900C606001044
:1055AC00801A0600C80600101A4B1B78012B13D06A
:1055BC00022B25D003B17047174B1968174A0A43C1
:1055CC001A601A6842F080721A60154B00221A7029
:1055DC00104B01221A7070470F4B5B68002BEADAF4
:1055EC000D4B9B69C3F30B130E4A13800C4BFF221C
:1055FC001A700D4B32221A60064B02221A70704739
:10560C00094A1368013B1360002BD4D1014B0022D3
:10561C001A70D0E7C506001000400340044D20006E
:10562C00C4060010CC060010D0060010144B5A6CA7
:10563C0042F400225A641349D1F8C42042F4805237
:10564C00C1F8C4205A6842F480225A604CF250339C
:10565C00013BFDD10C4B0D4A1A600A4AD2F8A83115
:10566C0043F08073C2F8A8310023094A1370094A29
:10567C001360094A1370094B4FF6FF721A8070477A
:10568C0000C0024000C00F4000400340044D200009
:10569C00C4060010D0060010C5060010CC06001081
:1056AC00024B00221A70024B18887047C406001077
:1056BC00CC060010014B1878704700BFC4060010D0
:1056CC00904214DA884214DD401A00EB800040004E
:1056DC00521A094B83FB0213D217C2EBA30290FBA5
:1056EC00F2F040B26328A8BF6320C0B270476320B9
:1056FC0070470020704700BF676666661A4BD3F888
:10570C00A82142F04002C3F8A821D3F8C42042F0EB
:10571C000802C3F8C420A3F5702383221A7313481C
:10572C00134A117810F811101970117800221A719F
:10573C008A1C10F812C0013130F8112042EA0C1208
:10574C00D2B283F8282003221A7306221A7209494E
:10575C000A6842F050020A60074A202182F80513B9
:10576C00116007225A60704700C00F40ACB70100AF
:10577C00D406001000C0024000E100E01A4BD3F840
:10578C00A82142F48072C3F8A821D3F8C42042F0B7
:10579C001002C3F8C420A3F56C2383221A73134997
:1057AC00134A107811F81000187012780020187134
:1057BC00901C11F81000013211F8122042EA00126C
:1057CC009A6203221A7306221A720A490A6942F073
:1057DC000A020A61084A202182F80613402111604E
:1057EC0007225A60704700BF00C00F40ACB70100E1
:1057FC00D406001000C0024000E100E01B4BD3F8BF
:10580C00AC2142F48032C3F8AC21D3F8C42042F06E
:10581C008072C3F8C420A3F5C82383221A731448DA
:10582C00144A117810F811101970117800221A719D
:10583C008A1C10F812C0013130F8112042EA0C1207
:10584C00D2B283F8282003221A7306221A720A494C
:10585C000A6842F4A0020A60084A202182F8071361
:10586C008021116007225A60704700BF00C00F40B2
:10587C00ACB70100D406001000C0024000E100E00B
:10588C001B4BD3F8AC2142F48022C3F8AC21D3F8E3
:10589C00C42042F00072C3F8C420A3F5C0238322B5
:1058AC001A731448144A117810F8111019701178E1
:1058BC0000221A718A1C10F812C0013130F8112024
:1058CC0042EA0C12D2B283F8282003221A73062261
:1058DC001A720A490A6842F00A020A60084A202130
:1058EC0082F808134FF48071116007225A607047D8
:1058FC0000C00F40ACB70100D406001000C002403D
:10590C0000E100E0024603780133DBB2C82B92BF02
:10591C0000200023FF20137070470A2823D010B5F5
:10592C000C460D2809D10B780B440022DA7108467D
:10593C00FFF7E8FF2378A37010BD0B780B44D871E8
:10594C000846FFF7DFFF227863789A4207D0A278E7
:10595C0023789A42F0D1A01CFFF7D4FFECE7601C2F
:10596C00FFF7D0FFF3E7704708B50146D0F89C214C
:10597C009368C3F34203032B06D0022B14D0062BDF
:10598C0016D0012B1BD008BD137DD8B213F09E0F7F
:10599C0006D110F0010FF6D01078FFF7BEFFF2E73A
:1059AC00C1F8A0011378EEE71078FFF7B6FFEAE72D
:1059BC00D0F8A03143F48073C0F8A031E3E7137D35
:1059CC0013F0200FDFD08379002BDCD00379C07863
:1059DC0098420DD00B4493F8D1300A2B03D00D2BE9
:1059EC0001D0137000E01370081DFFF78BFFCAE79E
:1059FC004B7100238B71C6E70023037043708370D7
:105A0C00C370037143718371C0F8A03170470000FB
:105A1C0038B504460C4B53F82050042834BF0446C8
:105A2C0000240C2928BF0C21084B1970084B53F883
:105A3C00243098472846FFF7DFFF064B53F82430F5
:105A4C00C5F89C31284638BD04B40100D4060010BA
:105A5C00F4B301007C000010F8B504460A78AAB132
:105A6C000D46C61C071D02E015F8012F72B1E37834
:105A7C00234483F8D1203046FFF744FFE2782379A2
:105A8C009A42F1D13846FFF73DFFEDE7E3786371B9
:105A9C00FF20F8BD38B504460D46C37803442B22CD
:105AAC0083F8D1200330FFF72DFF29462046FFF75E
:105ABC00D3FF38BD83793BB903794079181A18BFE5
:105ACC004FF0FF30C0B270470020704743788078A9
